:020000040000FA
:06000000020107020EF4EC
:03002B000211843B
:0300330002115C5B
:03003B000211A906
:0300430002110C9B
:03005300020F6A2F
:03006B000211344B
:10008300020DF7E5C754F84401F5C77901220000D2
:100093000080FB120086B900030200F1E4791C78AA
:1000A30002B800028004F709D8FCE4791E7802B88C
:1000B30000028004F709D8FCE490028178457906B0
:1000C3008002F0A3D8FCD9FA7AC57B079001377870
:1000D300F679018015E493A3AD82AE838A828B8384
:1000E300F0A3AA82AB838D828E83D8E9D9E7758288
:1000F3004775839974011201197582917583007490
:100103000012011975D00075813F751A81751B02A4
:10011300759F00020096C09FF59FE473D09F22D085
:1001230083D082C09FE493C0E0740193C0E0740263
:1001330093F59F223E024A02FF0000B4000028000C
:100143002800283075A000A000A000A0000008002F
:1001530008E001F000100010001000100010001063
:100163000050005000500010001000D007000000A5
:100173000000000F000100050030750700100001AA
:100183000081FF00000000FFAC03AC03AC03AC0331
:10019300AC03AC03AC03AC03AC03AC03AC03AC03E4
:1001A300AC03FFFFFF00556E7769726564477261A8
:1001B300696E000000000000000000000000000065
:1001C3000000000000003332313132333839373622
:1001D300000000000000000000000000000000001C
:1001E30000000000000030000000000000000000DC
:1001F30000000000000000000000000000000000FC
:100203000000000000003139322E3136382E312EF5
:100213003132300000000000000000000000000048
:10022300000000000000019307120122A325001221
:1002330001229B2600120122CF2600120122512700
:1002430000120122992700120122FD270012012228
:100253008A2800120122442900120122532C001281
:100263000122DE2D00120122012E0012012245730C
:10027300001201226D73001201229B7300120122EE
:10028300D273001201221D74001201227574001230
:100293000122A374001201226075001201227796D5
:1002A300011201228F9601120122497800120122C4
:1002B3005478001201226678001201223E7900125E
:1002C30001224379001201222A7A00120122397C89
:1002D30000120122617C001201229E7C0012012285
:1002E300D87C001201223F7D00120122887D00127A
:1002F3000122B27D00120122D77D00120122535B3D
:1003030000120122865B00120122665C00120122A8
:100313008B5C001201221D5E00120122603C001260
:100323000122F93D00120122C73E001201224D3F76
:1003330000120122BC3F00120122A240001201223E
:10034300675500120122B05500120122DD5500123B
:1003530001221256001201221F56001201222B56AF
:10036300001201223D5600120122115700120122F0
:100373006E5700120122AC5700120122EF580012EF
:1003830001224959001201229E5900120122D65A14
:10039300001201222C5B00120122BA9101120122E8
:1003A300C69101120122A49201120122FD7F0012C3
:1003B30001220966001201229F660012012256677C
:1003C30000120122806700120122736900120122C8
:1003D3009B6A00120122D14200120122F64200124E
:1003E3000122294500120122AC46001201222C48A9
:1003F300001201229D4800120122E348001201224B
:10040300F94800120122164900120122D26A001291
:100413000122486B001201225E6B001201229F6BC6
:1004230000120122D96B00120122526C0012012228
:100433008D6C00120122006D001201223E6D00122C
:100443000122476D00120122536D00120122796DC2
:10045300001201228F6D00120122664F0012012249
:10046300794F00120122934F00120122BC4F001258
:100473000122FF4F001201223E5000120122A3501D
:1004830000120122B85000120122CF5000120122A3
:10049300DD5000120122EC50001201220151001222
:1004A300012216510012012221510012012234515E
:1004B30000120122575100120122FE5100120122A3
:1004C3001352001201222D5200120122485200122F
:1004D30001226552001201227052001201222C5394
:1004E300001201221854001201223D54001201226D
:1004F3004854001201225D5400120122715400126B
:100503000122D25400120122EA5400120122289738
:1005130001120122549701120122AF970112012205
:10052300CE35001201222636001201229C3600121B
:100533000122CB36001201222F37001201226D3720
:1005430000120122883700120122203800120122F2
:10055300C938001201224C390012012285390012D8
:100563000122103A00120122673A00120122C63A10
:1005730000120122D83A00120122FE3A001201228F
:10058300073B00120122458F011201222490011220
:100593000122E775001201222C76001201227276E5
:1005A300001201220578001201224698011201224D
:1005B300619801120122719801120122C19701125F
:1005C3000122B06000120122D06000120122D46126
:1005D3000012012220620012012240620012012255
:1005E300936200120122006300120122466300128B
:1005F3000122F86500120122E392011201221393F2
:10060300011201223393011201228D93011201225F
:10061300C89801120122F5930112012206940112D6
:1006230001229C7000120122377300120122EC99FF
:1006330001120122E49401120122F4940112012215
:100643000E9501120122AB9501120122BF6D00121A
:100653000122656E00120122817000120122FF7DCA
:10066300001201222F7E001201229F7E001201221E
:10067300FB7E00120122767F00120122099A0112E9
:1006830001221F4900120122FE4A00120122854B5A
:1006930000120122894C00120122514D0012012245
:1006A300CF4D00120122B34E00120122B64E0012AA
:1006B3000122C44E00120122E14E001201220A4F10
:1006C30000120122334F00120122414F0012012276
:1006D300584F001201223D7A00120122837A001240
:1006E3000122B17A00120122037B00120122167B40
:1006F300001201222C7B00120122817B00120122B5
:10070300A37B00120122B9950112012280900112EC
:100713000122B290011201222C2F00120122123069
:10072300001201225F3000120122D4300012012294
:10073300353100120122AA31001201228632001241
:100743000122073300120122AE3400120122443584
:1007530000120122B735001201222C1200120122CD
:100763003212001201226C12001201224D130012E8
:100773000122E114001201224B150012012210186C
:1007830000120122E31E001201228C20001201221A
:100793006021001201227F21001201228E2100120A
:1007A3000122A32100120122A62100120122C1224B
:1007B300001201225923001201226F230012012289
:1007C300F02300120122C92400120122B37F001278
:1007D3000122DF7F001201229C9901E0667010085C
:1007E300A3E066700A08A3E066700408A3E066222B
:1007F300C3E7960809E7960809E7960809E79622EA
:10080300C3E09608A3E09608A3E09608A3E0962227
:10081300C008C3E096F50808A3E096420808A3E0E1
:1008230096420808A3E09645087001D3D008220831
:100833000808EAC0E0EBC0E086F0E7A4FA180986EE
:10084300F0E7A42AFA180986F0E7A42AFA18098619
:10085300F0E7A42AFA1986F0E7A4FBE5F02AFA19CF
:100863000886F0E7A42BFBE5F03AFA190886F0E7CF
:10087300A42BFBE5F03AFA18180986F0E7A4C5F0B3
:100883002BFBE43AFA1908E7C5F0C6A426F6E5F00F
:100893003BFBE43AFA1886F0E7A4F6E5F00826F6FF
:1008A300E43B08F6E43A08F6D0E0FBD0E0FA226035
:1008B30016080808C6C313C618C613C618C613C637
:1008C30018C613C6D5E0EA22E627F60809E637F686
:1008D3000809E637F60809E637F622E026F608A304
:1008E300E036F608A3E036F608A3E036F622E02663
:1008F300F008A3E036F008A3E036F008A3E036F0F2
:1009030022C3E697F60809E697F60809E697F6087C
:1009130009E697F622C3E0C696F608A3E0C696F664
:1009230008A3E0C696F608A3E0C696F622C3E096AF
:10093300F008A3E096F008A3E096F008A3E096F091
:1009430022E056F608A3E056F608A3E056F608A3FD
:10095300E056F622E0F608A3E0F608A3E0F608A3C3
:10096300E0F622E6F008A3E6F008A3E6F008A3E623
:10097300F022E0FAA3E0FBA3E0FCA3E0FD22EAF00F
:10098300A3EBF0A3ECF0A3EDF022CAC0E0E6F0A3E2
:1009930008DAFAD0E0FA22CAC0E0E0A3C582CCC5E7
:1009A30082C583CDC583F0A3C582CCC582C583CD63
:1009B300C583DAE6D0E0CA22B90010BB0008E88A92
:1009C300F084F8AAF022E4FBC8FA22EB70227B1031
:1009D300C833C8C933C9335007C39AC3DBF280068F
:1009E3009A50012ADBEAC833F4C8C933F4C9FA229E
:1009F30075F008E4C833C8C933C933C99AC99B50D1
:100A030004C92AC93BD5F0ECFBC833F4C8E4C9FADE
:100A130022600D08C6A2E713C618C613C6D5E0F3B5
:100A230022600C08C6C313C618C613C6D5E0F42249
:100A3300700422600D18C6C333C608C633C6D5E09A
:100A4300F41822251A10AF08F51A400C151B80085C
:100A5300F51A4002151BD2AF2200C0D0251A10AFE1
:100A630008F51A500C051B8008F51A5002051BD215
:100A7300AFD0D022251AF58210AF08F51A400C1515
:100A83001B8008F51A4002151BD2AF851B83222554
:100A93001AF582E4351BF58322E473251AC582C057
:100AA300E0E51B34FFC583C0E0E51AC3958224F853
:100AB30010AF0885831B85821A800885831B858276
:100AC3001AD2AFCEF0A3E520F0A37808E608F0A38E
:100AD300DEFAEFF0A3E58124FAF8E608F0A3E608CE
:100AE300F0A3E608F0A30808E608F0A3E608F0A3DD
:100AF30015811581D0E0FED0E0F8158115811581AF
:100B0300E8C0E0EEC0E022251AC582C0E0E51B3450
:100B1300FFC583C0E0E51AC3958224F910AF0885A9
:100B2300831B85821A800885831B85821AD2AFCEE8
:100B3300F0A3E520F0A37808E608F0A3DEFAEFF0CF
:100B4300A3E58124FBF8E608F0A3E608F0A3080870
:100B5300E608F0A3E608F0A315811581D0E0FED0E6
:100B6300E0F815811581E8C0E0EEC0E022851B8323
:100B7300851A82E0A3FEE0A3F5207808E0A3F60837
:100B8300DFFAE0A3FFE0A3C0E0E0A3C0E0E0A3C07E
:100B9300E0E0A3C0E0E0A3C0E010AF0885821A85BF
:100BA300831B800885821A85831BD2AFD083D082B2
:100BB30002011F851B83851A82E0A3FEE0A3F520B3
:100BC3007808E0A3F608DFFAE0A3FFE0A3C0E0E0C3
:100BD300A3C0E0E0A3C0E0E0A3C0E010AF088582BB
:100BE3001A85831B800885821A85831BD2AFD08325
:100BF300D08222C0D0251AC582C0E0E51B34FFC5D0
:100C030083C0E0E51AC3958224F310AF0885831BE4
:100C130085821A800885831B85821AD2AFC8F0A308
:100C2300E9F0A3EAF0A3EBF0A37908E709F0A3D86E
:100C3300FAECF0A3EDF0A3EEF0A3EFF0A3D0E0F015
:100C4300A3D0E0F0A3D0E0F0A3E520F0A3E5F0F01B
:100C5300A322851B83851A82E0C0E0A3E0F9A3E009
:100C6300FAA3E0FBA37808E0F608A3DFFAE0FCA30D
:100C7300E0FDA3E0FEA3E0FFA3E0C0E0A3E0C0E04B
:100C8300A3E0F5D0A3E0F520A3E0A3F5F010AF08AF
:100C930085831B85821A800885831B85821AD2AFC0
:100CA300D082D083D0E0F8D0E0327404800674029E
:100CB30080027401C0E0F404120A77D0E012098DB7
:100CC3002274048000CCC0E0EDC0E0E51AC39CCCE4
:100CD300AD1B50011D10AF068C1A8D1B80068C1A9C
:100CE3008D1BD2AF12099AD0E0FDD0E0FC22D08355
:100CF300D082E9C0E0E493A3C386F0C5F095F0F990
:100D030008E493A386F0C5F095F0700BE493A3C3B6
:100D1300994005E9048002A3E475F002A42582F555
:100D230082E5F03583F583D0E0F9E493A3C0E0E4F2
:100D330093C0E022D083D082ECC0E0EDC0E0E49326
:100D4300A3FCE493A3FDED4C600D120D83EC24FF93
:100D5300FCED34FFFD80EFE493A3FCE493A3FDEDEE
:100D63004C600D120DC2EC24FFFCED34FFFD80EF4F
:100D7300D0E0FDD0E0FCE493A3C0E0E493C0E02224
:100D8300C0E0C3E49396087401939618400FE4936C
:100D930066700808740193661870007019A3A3C3E2
:100DA300E49396087401939618A3A3400DD0E0D062
:100DB300E0D0E0020D73A3A3A3A3A3A3D0E022C0BA
:100DC300E0C0F088F0E49366700808740193661835
:100DD3007000A8F0A3A3700BD0F0D0E0D0E0D0E077
:0A0DE300020D73A3A3D0F0D0E022AC
:100DF000851C87851DC622C0E074EF120BF6A2AFDA
:100E0000E433FEC2AF759B00906182E0A2E050091E
:100E1000E591A2E050037591FEE0A2E55009E5914D
:100E2000A2E550037591DFE0A2E64003020ECAE599
:100E300091A2E64003020ECA7591BF9002C2E0641F
:100E400005700812043C1204488003120442751C09
:100E5000001204A2E99002C3F07900120484120384
:100E6000647A017B009002C1E0F912056290780378
:100E7000E0644270559002F8E014F0704DC2AF1279
:100E80000E8200781FD0E0F618D0E0F6E59F5407F8
:100E900070057509FF800375097FC4C0E0781EE600
:100EA000F50808E65509F509740B7808120A24D0EC
:100EB000E02508F8906270E0A2E740F8E8C33390BC
:100EC0006272F0906270E0D2E0F0906181E0A2E3A3
:100ED0005009E5E9A2E3500375E9F7A3E0A2E75062
:100EE00009E591A2E7500375917FEEA2E092AF7FF2
:100EF00004020C55C0E0C0D0C082C083906183E082
:100F0000A2E05009E5BFA2E0500375BFFEE0A2E1F8
:100F10005009E5BFA2E1500375BFFDE0A2E2500910
:100F2000E5BFA2E2500375BFFBE0A2E35009E5BFB5
:100F3000A2E3500375BFF7E0A2E45009E5BFA2E4C5
:100F4000500375BFEFE0A2E55009E5BFA2E55003ED
:100F500075BFDFE0A2E65009E5BFA2E6500375BF0A
:100F6000BFD083D082D0D0D0E032C0E074F2120B78
:100F7000F6E5A7A2E4500FE5A1A2E4500953A7EFBC
:100F800075A1EF120FBEE5A7A2E5500CE5A1A2E501
:100F9000500653A7DF75A1DFE5A7A2E15009E5A13F
:100FA000A2E1500375A1FDE5A7A2E2500CE5A1A2C4
:100FB000E2500653A7FB75A1FB7F01020C5574F8A4
:100FC000120B0A751C019002C2E0640670077A00D9
:100FD0007B00120424A2AFE433FED2AF9002C8E03B
:100FE000640170187A207B009002C1E0F91205E6D6
:100FF0007A207B009002C1E0F9120568906182E0DE
:10100000D2E6F09002F5E0602185C61D80169002C0
:10101000C7E064017008E5C654F84405F5C653BE40
:10102000FC120DF07401651C60E4EEA2E092AF7F4B
:1010300001020BB674F1120B0A8A088B098C0A8D17
:101040000B908F0B7808120944740F120A92780CD7
:10105000120957908F0B780C1209447808790C12FA
:1010600007F3908EDB50107808790C120904780889
:101070001208134014800E780C7908120904780CB9
:1010800012081350047901800279007F08020BB620
:1010900074ED120B0A8A088B098C0A8D0B908F0B4A
:1010A00078081209447413120A92780C12095790A6
:1010B0008F0B780C120944780C79081207F3401151
:1010C0007808790C120904AA08AB09AC0AAD0B80A8
:1010D00022751000751100751200751301781079D2
:1010E0000C120904781079081208CBAA10AB11ACC5
:1010F00012AD137F0C020BB6C082C083E990600072
:10110000F0D083D08222C2AF02000022C0E074F28D
:10111000120BF6A2AFE433FED2AFC2C0E5D1A2E417
:10112000500653D1EF1206D0EEF8EEA2E092AF7F58
:1011300001020C55C0E074F2120BF6A2AFE433FECC
:10114000D2AFE589A2E15003120676758900C2C5C7
:10115000EEF8EEA2E092AF7F01020C55C0E074F20F
:10116000120BF6A2AFE433FED2AFE58BA2E0500340
:10117000120676758B00C2E8EEF8EEA2E092AF7F21
:1011800001020C55C0E0C0D0E8C0E0E9C0E0A2AF69
:10119000E433F8D2AFC2C7E8F9E8A2E092AFD0E0FA
:1011A000F9D0E0F8D0D0D0E032C0E0C0D0E8C0E064
:1011B000E9C0E0C008C009C082C083A2AFE433F92F
:1011C000D2AF900511E0F8900512E068700B539AC9
:1011D000FB9005137401F08031C2E9900511E0F530
:1011E0000874012508900511F0750900749125080F
:1011F000F58274043509F583E0F5C1900511E0C36B
:10120000948040069005117400F0E9F8E9A2E0929C
:10121000AFD083D082D009D008D0E0F9D0E0F8D0A8
:10122000D0D0E032FFFFFFFFFFFFFFFF74026A0232
:10123000011F74F6120A9E74FF120A46E9FEEEF9C7
:101240001206CA8A088B09E508450960157C017DEC
:1012500000851A82851B83AA82AB83EEF91206B839
:1012600080DC7401120A5C7F02020B7074F0120AB7
:101270009EEAFEEBFF7508018E828F83E0F50AA3DC
:10128000E0F50B780A120D370000030000009A12F7
:10129000C301B912C501F91238139008B77401F0EF
:1012A000C29243FE041205F29007871209818E82D2
:1012B0008F8374C3F0A37401F01205F28A0C8B0DB6
:1012C0008C0E8D0F908F27C082C083900787780C7B
:1012D000120918D083D082780C12081340047900C8
:1012E000806653FEFB1205F29007871209818E82F9
:1012F0008F8374C5F0A37401F01205F28A0C8B0D74
:101300008C0E8D0F908ECBC082C083900787780C97
:10131000120918D083D082780C1208134004790087
:1013200080269008B77400F09007837400F0A374CF
:1013300000F09005657400F07508008E828F83744C
:1013400000F0A37400F079037F08020B7074EC12B4
:101350000A9E8A0C8B0D750801850C82850D83E031
:10136000F50AA3E0F50B780A120D37000003000020
:10137000007D13D9019813DB01E513CA147900121B
:1013800007601205F290078B120981850C82850D8A
:101390008374D9F0A37401F01205F28A108B118CBA
:1013A000128D13908ED7C082C08390078B78101255
:1013B0000918D083D08278101208134005790002F2
:1013C00014DC7C037D007AEB7B8E79001206BE1262
:1013D00005F290078B120981850C82850D8374DBE1
:1013E000F0A37401F01205F28A108B118C128D1388
:1013F000908ED7C082C08390078B7810120918D0C6
:1014000083D0827810120813400579000214DC7C26
:10141000007D0279007A837B0512052C7900120683
:10142000CA8A108B1185100E85110FE50E450F70BD
:10143000189005657401F0850C82850D837400F0A9
:10144000A37400F079020214DC79001206CA900736
:101450008FEAF0A3EBF090078FE0FCA3E0FD7A8326
:101460007B0579001206B8900791EAF0A3EBF075BE
:101470000A83750B057E007F00C3EE9410EF940085
:10148000A2D265D0335020850A82850B83E0701785
:10149000850A82850B83A385820A85830BEE24014E
:1014A000FEEF3400FF80D27CE37D8E74832EFA74CD
:1014B000053FFB1207D88A108B11E5104511600417
:1014C000740080027401900565F0750800850C8237
:1014D000850D837400F0A37400F079037F0C020B78
:1014E0007074F4120A9E740C120A92E0F508A3E0DC
:1014F000F509740E120A92E0FEA3E0FF7410120ABE
:1015000092E0F8A3E0F97412120A92E0F50AA3E05F
:10151000F50B900793EAF0A3EBF0900795ECF0A39E
:10152000EDF0900797E508F0A3E509F0900799EE34
:10153000F0A3EFF090079BE8F0A3E9F090079DE59A
:101540000AF0A3E50BF07F04020B7074EC120A9E04
:101550008A088B097E01850882850983E0F50AA344
:10156000E0F50B780A120D370000030000007A1531
:10157000360207173F027A17FA17790012076090B0
:1015800008B8E0F8A3E0F5838882E0F8A3E0F9E882
:1015900049602C9008B8E0F8A3E0F5838882E0FA6F
:1015A000A3E0FB1207D2EAFCEBFD9008B8E0F8A339
:1015B000E0F5838882E0FAA3E0FB79001206BE9092
:1015C00008B8E0F8A3E0F5838882A3A3E0F8A3E0DD
:1015D000F9E849603D7C017D007A3E7B8F790012FD
:1015E00006BE9008B8E0F8A3E0F5838882A3A3E0E4
:1015F000FAA3E0FB1207D2EAFCEBFD9008B8E0F892
:10160000A3E0F5838882A3A3E0FAA3E0FB790012AC
:1016100006BE9008B8E0F8A3E0F5838882A3A3A3F0
:10162000A3E0F8A3E0F9E84960417C017D007A3E3F
:101630007B8F79001206BE9008B8E0F8A3E0F5832E
:101640008882A3A3A3A3E0FAA3E0FB1207D2EAFCDB
:10165000EBFD9008B8E0F8A3E0F5838882A3A3A38C
:10166000A3E0FAA3E0FB79001206BE9008B8E0F808
:10167000A3E0C82406F582E83400F583E0F8A3E08F
:10168000F9E84960457C017D007A3E7B8F79001244
:1016900006BE9008B8E0F8A3E0C82406F582E83456
:1016A00000F583E0FAA3E0FB1207D2EAFCEBFD9021
:1016B00008B8E0F8A3E0C82406F582E83400F58312
:1016C000E0FAA3E0FB79001206BE7C017D007A3CC3
:1016D0007B8F79001206BE9008B8E0F8A3E0C8241A
:1016E00008F582E83400F583E0F8A3E0F9E84970F2
:1016F000581205F290079F12098185088285098397
:101700007436F0A37402F01205F28A0C8B0D8C0E65
:101710008D0F908F0FC082C08390079F780C1209A5
:1017200018D083D082780C12081340057900021873
:101730000B9005657400F08508828509837400F0BC
:10174000A37400F0790202180B750A00750B027879
:101750000A120CB17C007D007A837B051207CC74E1
:1017600002120A5C1205F290079F12098185088215
:10177000850983743FF0A37402F01205F28A108B7E
:10178000118C128D1390079F78101209189008B8C9
:10179000E0F8A3E0C8240AF582E83400F583E0F518
:1017A0000CA3E0F50DE4F50EF50F7810790C120797
:1017B000F340047900805479001206CAEAFCEBFD7C
:1017C0007A837B0579001206B89008B8E0F8A3E0A8
:1017D000C82408F582E83400F583E0FCA3E0FD7A34
:1017E000837B051207D88A0A8B0BE50A450B600438
:1017F000740080027401900565F07E008508828582
:1018000009837400F0A37400F079037F0C020B705D
:1018100074F0120A9EEAFEEBFF7508018E828F8338
:10182000E0F50AA3E0F50B780A120D37000013006B
:1018300000007E18530293185802F2185D025519E1
:101840006102B81965021B1A6A027E1A7302E11A54
:101850007802441B7C02A71B88020A1C8C026D1CA8
:101860009002D01C9402331D9802961D9D02F91D12
:10187000A2025A1EA802801EAB02A51ECE1E900711
:10188000A77400F0A37400F08E828F837453F0A3CA
:101890007402F07AA77B0712076CE9C39402500523
:1018A0007900021EDEE4F50AF50B780A120CB1E4A9
:1018B000F50AF50B780A120CB1E4F50AF50B780A73
:1018C000120CB1E4F50AF50B780A120CB17C007D1C
:1018D000007A747B8E1207727408120A5C9007A754
:1018E0007400F0A37400F08E828F837458F0A37498
:1018F00002F07AA77B07120778E9C39402500579B2
:1019000000021EDE750AF4750B01780A120CB1751F
:101910000AB3750B8E780A120CB1750A37750B086D
:10192000780A120CB1750ABD750B8E780A120CB1CB
:101930007CC27D8E7A2B7B8F1207727408120A5C30
:101940009007A77400F0A37400F08E828F83745DFB
:10195000F0A37402F07AA77B07120778E9C3940218
:1019600050057900021EDE750AF4750B01780A1223
:101970000CB1750AB3750B8E780A120CB1750A5743
:10198000750B08780A120CB1750A66750B8E780A09
:10199000120CB17CC27D8E7A2B7B8F120772740879
:1019A000120A5C9007A77400F0A37400F08E828F77
:1019B000837461F0A37402F07AA77B07120778E9B9
:1019C000C3940250057900021EDE750AF4750B01FE
:1019D000780A120CB1750AB3750B8E780A120CB125
:1019E000750A77750B08780A120CB1750A40750BE9
:1019F0008E780A120CB17CC27D8E7A2B7B8F1207F7
:101A0000727408120A5C9007A77400F0A37400F0C7
:101A10008E828F837465F0A37402F07AA77B07121D
:101A20000778E9C3940250057900021EDE750AF4B6
:101A3000750B01780A120CB1750AB3750B8E780A12
:101A4000120CB1750A42750B8F780A120CB1750A27
:101A5000B8750B8E780A120CB17C397D8F7A2B7B8E
:101A60008F1207727408120A5C9007A77400F0A323
:101A70007400F08E828F83746AF0A37402F07AA7E8
:101A80007B07120778E9C3940250057900021EDE35
:101A9000750AF4750B01780A120CB1750AB3750B4F
:101AA0008E780A120CB1750A97750B08780A120C19
:101AB000B1750AA9750B8E780A120CB17C397D8F2D
:101AC0007A2B7B8F1207727408120A5C9007A77436
:101AD00000F0A37400F08E828F837473F0A37402FD
:101AE000F07AA77B07120778E9C3940250057900C2
:101AF000021EDE750AF4750B01780A120CB1750A24
:101B0000B3750B8E780A120CB1750AA4750B8E781A
:101B10000A120CB1750A2E750B8E780A120CB17C64
:101B2000397D8F7A2B7B8F1207727408120A5C90B2
:101B300007A77400F0A37400F08E828F837478F08E
:101B4000A37402F07AA77B07120778E9C3940250C6
:101B5000057900021EDE750AF4750B01780A120C75
:101B6000B1750AB3750B8E780A120CB1750A367509
:101B70000B8F780A120CB1750A37750B8E780A1222
:101B80000CB17CEF7D8E7A2B7B8F1207727408125A
:101B90000A5C9007A77400F0A37400F08E828F8314
:101BA000747CF0A37402F07AA77B07120778E9C36C
:101BB000940250057900021EDE750AF4750B017857
:101BC0000A120CB1750AB3750B8E780A120CB17536
:101BD0000A40750B8F780A120CB1750A7A750B8E54
:101BE000780A120CB17C957D8E7A2B7B8F1207724E
:101BF0007408120A5C9007A77400F0A37400F08EBA
:101C0000828F837488F0A37402F07AA77B0712078F
:101C100078E9C3940250057900021EDE750AF47556
:101C20000B01780A120CB1750AB3750B8E780A1283
:101C30000CB1750A40750B8F780A120CB1750A9AAF
:101C4000750B8E780A120CB17C957D8E7A2B7B8F6A
:101C50001207727408120A5C9007A77400F0A3744C
:101C600000F08E828F83748CF0A37402F07AA77BCD
:101C700007120778E9C3940250057900021EDE7549
:101C80000AF4750B01780A120CB1750AB3750B8E44
:101C9000780A120CB1750A40750B8F780A120CB1D4
:101CA000750A6D750B8E780A120CB17C957D8E7A53
:101CB0002B7B8F1207727408120A5C9007A77400BE
:101CC000F0A37400F08E828F837490F0A37402F0FE
:101CD0007AA77B07120778E9C394025005790002BE
:101CE0001EDE750AF4750B01780A120CB1750AB381
:101CF000750B8E780A120CB1750A42750B8F780A33
:101D0000120CB1750A9F750B8E780A120CB17CC249
:101D10007D8E7A2B7B8F1207727408120A5C9007F3
:101D2000A77400F0A37400F08E828F837494F0A3E4
:101D30007402F07AA77B07120778E9C39402500572
:101D40007900021EDE750AF4750B01780A120CB1D7
:101D5000750AB3750B8E780A120CB1750A86750B6D
:101D60008E780A120CB1750A48750B8E780A120C1F
:101D7000B17C137D8F7A2B7B8F1207727408120A45
:101D80005C9007A77400F0A37400F08E828F8374B8
:101D900098F0A37402F07AA77B07120778E9C3943E
:101DA0000250057900021EDE750AF4750B01780AEF
:101DB000120CB1750AB3750B8E780A120CB1750A44
:101DC00090750B8E780A120CB1750A5F750B8E78C0
:101DD0000A120CB17CEF7D8E7A2B7B8F1207727406
:101DE00008120A5C9007A77400F0A37400F08E82BA
:101DF0008F83749DF0A37402F07AA77B0712077893
:101E0000E9C3940250057900021EDE750AF4750BD1
:101E100001780A120CB1750AB3750B8E780A120C90
:101E2000B1E4F50AF50B780A120CB1E4F50AF50BEA
:101E3000780A120CB17C007D007AAE7B8E1207729C
:101E40007408120A5C9007A77400F0A37400F08E67
:101E5000828F8374A2F0A37402F07AA77B07120723
:101E600078E9C394025004790080739007A7740046
:101E7000F0A37400F08E828F8374A8F0A37402F034
:101E80007AA77B07120766E9C394025004790080A1
:101E90004D1205F29007A31209818E828F8374ABD5
:101EA000F0A37402F01205F28A0C8B0D8C0E8D0FCC
:101EB000908F0FC082C0839007A3780C120918D0AE
:101EC00083D082780C1208134004790080107508C2
:101ED000008E828F837400F0A37400F079037F0872
:101EE000020B7074F0120A9EEAFEEBFF7508018E79
:101EF000828F83E0F50AA3E0F50B780A120D370014
:101F000000060000001D1F4F04651F5104A41F524E
:101F100004CA1F5B0409205C042E20772053F4F7C9
:101F2000D29343FE0853F4FDD29143FE0253F3FED5
:101F300053FDFE53F3BFC28643FD4053F3FD53FDF3
:101F4000FD53F4FED29043FE0153F37FD28743FD4D
:101F5000801205F29007AD1209818E828F83744F33
:101F6000F0A37404F01205F28A0C8B0D8C0E8D0F09
:101F7000908F2FC082C0839007AD780C120918D0C3
:101F800083D082780C1208134005790002208790D4
:101F900007AB7400F0A37400F08E828F837451F04D
:101FA000A37404F07AAB7B07120766E9C39402506E
:101FB0000579000220871205F29007AD1209818E83
:101FC000828F837452F0A37404F01205F28A0C8B92
:101FD0000D8C0E8D0F908F2FC082C0839007AD782F
:101FE0000C120918D083D082780C1208134005799E
:101FF000000220879007AB7400F0A37400F08E827B
:102000008F83745BF0A37404F07AAB7B0712077EB6
:10201000E9C3940250047900806D1205F29007AD77
:102020001209818E828F83745CF0A37404F0120510
:10203000F28A0C8B0D8C0E8D0F908F2FC082C08377
:102040009007AD780C120918D083D082780C120852
:1020500013400479008030908F23120CC47A027BE5
:1020600000900564E0F91205E07404120A5CE97955
:102070000012076012079C7508008E828F8374001F
:10208000F0A37400F079037F08020B7074F7120A52
:102090009E74FF120A46E9FE900564F0851A828557
:1020A0001B837408F0851A82851B83AC82AD83790B
:1020B000017A017B041206DCE97CA07D0F7A027BA9
:1020C0000012026EE97CA07D0F7A037B0012026E83
:1020D000E9900564E0F91205FEE97A007903120639
:1020E0007CE99005667401F09005677400F0900536
:1020F000687400F09005697400F0A37400F0900516
:10210000707400F0A37401F09005787400F0A3746B
:1021100001F090056B7406F090057C7401F0900559
:1021200081745AF0A37407F07A667B057900120671
:10213000B2E97A017B00900564E0F9120562E97A60
:10214000087B00900564E0F9120562E99007A97424
:1021500000F0A37400F07401120A5C7F01020B709E
:10216000C082C0839007857400F0A37400F07B00E8
:102170007A0079031206E2E9D083D08202011FC0FF
:1021800082C0831206E8E9D083D08202011FC08298
:10219000C0839007857400F0A37400F0D083D082D0
:1021A00002011F02011F74F4120A9E7508007E00CE
:1021B0007F007C067D007A587B8E79001206BE79FE
:1021C000001206CA8A0A8B0BAE0AAF0BEE4F604DA7
:1021D000750A00750B02780A120CB17C007D007A3A
:1021E000837B051207CC7402120A5CEEFCEFFD7AC9
:1021F000837B0579001206B88A0A8B0BAE0AAF0BF7
:10220000E50A4F60187C8B7D8E7A837B051207D898
:102210008A0A8B0BE50A450B6003750801E5086027
:102220002314707C900563E0700E1207A290056382
:102230007401F012079080729007857400F0A37407
:1022400000F08066900563E064017029900785C303
:10225000E0940BA3E09400400E120796900563747F
:1022600000F012079C8043900785E02401F0A3E072
:102270003400F08035900563E0702F900785C3E04F
:10228000941FA3E09400400AC2AF75C9AB75C95B47
:1022900080FE900785E02401F0A3E03400F0800A7E
:1022A000C2AF75C9AB75C95B80FE900563E0640180
:1022B0007006C290C2878004D290C2877F04020B4E
:1022C0007074F2120A9E890AEAFEEBFFEE5400F8DF
:1022D000EF5480F9E8496031900564E0F912054A4D
:1022E0008A0C8B0DA80CA90D88088909E849600F94
:1022F000AA08AB091207B4AA08AB09120538E9EE1F
:102300006400FAEF6480FB804BEEA2E050137AF396
:102310007B8E1206D6E9F8EE6401FAEF6400FB80CA
:1023200033EE5402600D1207A8EE6402FAEF640067
:10233000FB8021EE540860187AA97B07120784E914
:10234000600874086EFE74006FFFEEFAEFFB800405
:102350007A007B007F06020B70C082C0838A828B6A
:1023600083E02450600224F0D083D08202011F74E5
:10237000F6120A9E8A088B09850882850983A3A321
:10238000E0606814605324F470617C0E7D00FFEC03
:10239000FEEDFFE5082405FAE5093400FB1207C04D
:1023A000FDEEFCEFFD79001206BE7C047D00FFEC23
:1023B000FEEDFFE508240BFAE5093400FB1207C621
:1023C000FDEEFCEFFD79001206BE7C027D007A3343
:1023D0007B8F79001206BE8012900563E064017065
:1023E0000A7B007A0079031206E2E97F02020B7091
:1023F00074F7120A9E74EF120A46EAFEEBFF908E03
:102400000FC082C083851A82851B83AC82AD83D0C6
:1024100083D082741112099A78B1790788828983EE
:102420007430F088828983A3A882A98388828983F3
:102430007478F088828983A3A882A983EE2406FE9B
:10244000EF3400FF750806E508C394014066EE24EA
:10245000FFF582EF34FFF583AE82AF83E0C4540F03
:10246000FA7B00851A82851B83E5822AF582E58343
:102470003BF583E088828983F088828983A3A882E0
:10248000A9838E828F83E0FA7B00540FFAEB54000D
:10249000FB851A82851B83E5822AF582E5833BF55D
:1024A00083E088828983F088828983A3A882A983B4
:1024B00015088093888289837400F07AB17B077451
:1024C00011120A5C7F01020B7074F7120A9E74EFFE
:1024D000120A46EAFEEBFF908DFEC082C083851A89
:1024E00082851B83AC82AD83D083D08274111209A4
:1024F0009A78C07907888289837430F088828983CA
:10250000A3A882A983888289837478F088828983CA
:10251000A3A882A9838E828F83A3AE82AF8375081E
:1025200001E508C394014066EE24FFF582EF34FF15
:10253000F583AE82AF83E0C4540FFA7B00851A8224
:10254000851B83E5822AF582E5833BF583E088825B
:102550008983F088828983A3A882A9838E828F834E
:10256000E0FA7B00540FFAEB5400FB851A82851BBE
:1025700083E5822AF582E5833BF583E088828983BF
:10258000F088828983A3A882A98315088093888212
:1025900089837400F07AC07B077411120A5C7F0192
:1025A000020B7074F4120A9EEAFEEBFF1226906092
:1025B000057911022680900284E0540A7005791290
:1025C0000226807A047B0012059E90029DEAF0A309
:1025D000EBF0122690700302267E75080475090040
:1025E0007808120CB1EEFCEFFD122685120520745E
:1025F00002120A5C1202BCE9600F7A0C7B00120224
:10260000748A088B097A0D80268E828F83A3E064FA
:1026100002700F7A127B001202748A088B097A13F7
:10262000800D7A107B001202748A088B097A117B64
:10263000001202748A0A8B0BAC0AAD0B8E828F8358
:10264000A3A3A3E06004780180027800900285E0F3
:102650007004790080027901E8F50A780A120CB555
:10266000E9F50A780A120CB5AA08AB098E828F83A5
:10267000A3A3E0F91202DA7402120A5C8002791351
:102680007F04020B7090029DE0FAA3E0FB22E9FEBA
:1026900090029DE0F8A3E0F9E8492274F7120A9E3F
:1026A00012268E700479128021122793E06E600446
:1026B000790380167A017B0090029FE0F91205E60B
:1026C000793012025C79001202627F01020B707491
:1026D000F7120A9E89087A01900283E0F9120250EB
:1026E000900284E0540A605AE508900283F07AC5AB
:1026F0007B071202C89002811226937041900283D8
:10270000E0604975F00CA4FEAFF0FAEFFB12059EF5
:10271000900281EAF0A3EBF0900281122693601EF2
:10272000EEFCEFFD790012052C7B008005EB1229F1
:102730001D0B900283E0F8EBC39840F1800E7913F3
:10274000800C900283E4F0FAFB1202C879000226A2
:10275000CA74F6120A9E79018A088B097808120C4D
:10276000F10B20018A2779276A278C828D83A3A306
:10277000A3A3A3122790E060128C828D83A3A3A34E
:10278000A3A3122DD31202448001197F02020B7001
:10279000E0F8A3E0F58388822274F4120A9E1226E0
:1027A0008E6055EE703A122793A3E0640270047AAB
:1027B0000380027A027B001202748A088B09E4F516
:1027C0000AF50B7808120CAD7A017B0090029FE0AD
:1027D000F91205DA7404120A5C7901120262E9FE48
:1027E000EE60117A017B0090029FE0F91205E6EE9F
:1027F000F912025C79018002790002268074F412D9
:102800000A9EEA4B7011122690607C790012025CDD
:1028100079001202628070EA2403F508EB3400F5B7
:1028200009850882F583E0605E8A828B83A3A3A377
:10283000A3E0FEA3E0FFEE4F604D7A247B0012027E
:1028400074EAF50B750A008030EE2428F582EF3427
:1028500000F583E0C3950BA2D265D0334011EEFAA8
:10286000EFFB120256E96007EEFAEFFB120268EE88
:102870002429FEEF3400FF050A850882850983E0DC
:10288000F8E50AC39840C202268074F5120A9E89B0
:10289000088A09900281122693607D750A00802FB4
:1028A000E50A75F00CA4FEAFF0122924122C4B603F
:1028B0000A1205A4122924E4F0A3F012293E122CD6
:1028C0004B600A1205A412293EE4F0A3F0050AE5C4
:1028D0000AC3950840CAE509900281600F12268854
:1028E0001205A4900281E4F0A3F0802C12269360DC
:1028F00027E50875F00CA4FCADF079009002811278
:10290000268812052C750A008007E50A12291D0584
:102910000AE50AC3950840F27F03020B70122D9A54
:1029200074FFF02212292822900281E02EF8A3E001
:102930003F8882F583A3A3A3A3A3A3A3A322122961
:1029400028A3A32274E8120A9E74FF120A46EAFE24
:10295000EBFF7508007A007B001226906075EE246C
:1029600008F50AEF3400F50BEE2409F512EF3400F8
:10297000F5138E828F83E0640160347812120CB1FB
:10298000850A82850B83E0FC7402120A92AA82AB4C
:102990008379011202A47402120A5CEA4B60078A6E
:1029A000828B83E0F5088E828F83E06404603B9025
:1029B000029D122790A3E0F8740368602DE870046C
:1029C000E5086026EA4B600B7401687012740355C9
:1029D00008701779007401120A5C7F10020B707482
:1029E000026870EFE508A2E050E98E828F83A3852C
:1029F000820E85830FEE2402F50CEF3400F50DAA4C
:102A00000CFBE0F912028CE9F8850E82850F83F049
:102A1000850C16850D178811900281122693606A25
:102A200075100080020510900283E0F8E510C3984D
:102A30005058E51075F00CA4F508E5F0F509900282
:102A400081E02508FAA3E03509FB8A828B83E0F454
:102A500060D3A3E0651170CD751406751500781468
:102A6000120CB1AC16AD17EA2402FAEB3400FB12DB
:102A700005267402120A5CE960AB900281E0250829
:102A8000F508A3E03509F509800675080075090009
:102A90008E828F83E0FAE50845097003022B51E529
:102AA00008240AF50EE5093400F50FE5082408F5B9
:102AB0000CE5093400F50D74046A600C850C828500
:102AC0000D83E0FAA3E0800E850E82850F83E0F887
:102AD000A3E0F9E8FAE9FBEA4B7003022BBE850A92
:102AE00082850B83E0F5148A828B83E06514702560
:102AF0007515007814120CB1AC12AD138A828B8359
:102B0000A3AA82AB831205267402120A5CE964014F
:102B100070030229D38E828F83E064046019850CD0
:102B200082850D83122C4B7003022BBE1205A485E7
:102B30000C82850D838014850E82850F83122C4BA9
:102B4000607C1205A4850E82850F83E4F0A3F080DB
:102B50006D74046A70030229D39002811226936077
:102B60002B7C0080010C900283E0F8ECC398501C91
:102B7000EC75F00CA4F8A9F0900281E028F8A3E02D
:102B800039F988828983E0F470DB800675820075EC
:102B90008300858208858309E508450970030229B9
:102BA000D3EAF0850E82850F83122DBA120CB1ACD8
:102BB0000CAD0D122DAF1205207402120A5C850AAD
:102BC00082850B83E02401FAE43400FB12059EEABF
:102BD0004B605E8E828F83E064046014850882857A
:102BE0000983A3A3A3A3A3A3A3A3EAF0A3EB801841
:102BF000EAF8EBF9850882850983A3A3A3A3A3A31D
:102C0000A3A3A3A3E8F0A3E9122C428A828B831228
:102C10002C42F5087509007808120CB1AC12AD13FE
:102C20008A828B83A3AA82AB831205207402120AC4
:102C30005C850A82850B83E070030229D379010247
:102C400029D5F0850A82850B83E022E0FAA3E0FB18
:102C5000EA4B2274F0120A9E890B750A0012269024
:102C60007003022D959002811226937003022D9518
:102C7000E50B701D750C00800DE50C122D9AE0F42B
:102C80006002050A050C900283E0F8E50CC3984049
:102C9000E8850A0875090074037808120A33E50804
:102CA0002406FAE5093400FB1205328A088B09AEC6
:102CB00008AF09EE4F70157A067B001205328A08BC
:102CC0008B09AE08AF09750A00750B13EE4F700340
:102CD000022D7E8E828F8374D0F0A3E50B122F1B02
:102CE0007401122F1BA3E50AF0EE2404F582EF34E1
:102CF00000F583E50A607DEE2406F508EF3400F563
:102D000009E508F0A3E509F0750C00900283E0F8EE
:102D1000E50CC3985062E50A605EE50C75F00CA402
:102D2000F8A9F0900281E028F8A3E039F9E8FAE97F
:102D3000FB8A828B83E0F874FF686034E885088240
:102D4000850983F08A828B83A3122DBA120CB1EA13
:102D50002402FCEB3400FD122DAF12052074021288
:102D60000A5CE5082408F508E5093400F509150AA8
:102D7000050C8097E4F0A3F0122DCC12053E7A00EA
:102D8000900283E0F91202501226851205A49002E7
:102D90009DE4F0A3F07F08020B7075F00CA4F8A975
:102DA000F0900281E028FAA3E0398A82F58322E5D7
:102DB000082402FAE5093400FB22E085088285092F
:102DC00083A3F0750E06750F00780E22EEFAEFFB66
:102DD00090029DE0F8A3E0F5838882E0F92274F682
:102DE000120A9EE9FE7A237B001202748B09EA45DF
:102DF0000960047A0180027A00EEF91202E00227EB
:102E00008B74F2120A9E8A088B09122690700302B4
:102E10002F16EA2408F50AEB3400F50B850A82F533
:102E200083E0240FFAE43400FB1205328A0C8B0D88
:102E3000AE0CAF0DEE4F7003022F168E828F83748F
:102E4000D0F0A3E4122F1B740DF08508828509834E
:102E5000122F23F0E5082428F582E5093400F583D4
:102E6000E0C0E0EE240BF582EF3400F583D0E0F013
:102E7000850882850983A3122F23A3F0750C06759C
:102E80000D00780C120CB1E5082402FCE5093400B1
:102E9000FDEE2405FAEF3400FB1205207402120A3D
:102EA0005C850A82850B83E0F50AEE240CF8EF348A
:102EB00000F9E8FCE9FD8C828D83E50AF0EE240D33
:102EC00008EF3400F9E8FAE9FBE50A603BEE240F6D
:102ED000F8EF3400F98A828B83E8F0A3E9F08C8262
:102EE0008D83E0F50A750B00780A120CB1E5082411
:102EF00009FCE5093400FD8A828B831226881205BD
:102F0000207402120A5C80088A828B83E4F0A3F0AA
:102F1000122DCC12053E7F06020B70F08E828F833D
:102F2000A3A322E08E828F83A3A3A32274F4120AA8
:102F30009E74FC120A467E009005627400F09005B3
:102F40005F7400F07F7DEFC3947F507A750804753D
:102F500009007808120CB17402120A92AC82AD8397
:102F60007A007B00EFF912064C7402120A5C908E14
:102F7000FF7808120957851A82851B837808120783
:102F8000DE702290055FE0601590055FE0F91207A2
:102F90002AEFF912072A90055F7400F08025EF9060
:102FA000055FF0801E851A82851B837808120957F9
:102FB000E5084509450A450B7004EFFE8005EFF969
:102FC00012072A0F808090055FE0702FEE701D7948
:102FD0007D12071E9005607404F0A37400F0900544
:102FE00062E07004790180207900801CEE90055F1A
:102FF000F0120730EEF9120742800BEE6005EEF991
:1030000012072412073079017404120A5C7F04024B
:103010000B7074F7120A9E74FC120A46E9FE7A00DD
:103020007B007C107D00851A82851B83EAF0A3EB70
:10303000F0A3ECF0A3EDF0851A82851B83AC82AD82
:10304000837A007B00EEF912074E900562E070056E
:10305000EE90055FF07404120A5C7F01020B70743D
:10306000F4120A9E74FF120A468908900562E06015
:10307000089005627401F08051A9081206587E007C
:103080007F00C3EE9400EF9408503F750A01750B62
:1030900000780A120CB17402120A92AC82AD83EE6F
:1030A000FAEFFBA90812064C7402120A5C851A8218
:1030B000851B83E064FF60089005627401F0800A5C
:1030C000EE2401FEEF3400FF80B87401120A5C7F29
:1030D00004020B7074F4120A9E74FF120A468908E7
:1030E0007E007F00C3EE9400EF9408503E750A0105
:1030F000750B00780A120CB17402120A92AC82AD00
:1031000083EEFAEFFBA90812064C7402120A5C85E2
:103110001A82851B83E064FF6007A90812072480D8
:103120000AEE2401FEEF3400FF80B97401120A5C3C
:103130007F04020B7074F4120A9E74FC120A467E1D
:10314000FC7F07C3EE9404EF9400404475080475B7
:1031500009007808120CB17402120A92AC82AD8395
:10316000EEFAEFFB90055FE0F912064C7402120ACA
:103170005C908EFB7808120957851A82851B83782C
:10318000081207DE700AEE24FCFEEF34FFFF80B366
:10319000EE2404F8EF3400F9900560E8F0A3E9F0BC
:1031A0007404120A5C7F04020B7074F4120A9E7499
:1031B000FC120A468909EAFEEBFF8C08EE24FCFEAD
:1031C000EF34FFFFC3EE9404EF9400500302327813
:1031D000750A04750B00780A120CB17402120A9277
:1031E000AC82AD83EEFAEFFBA90912064C74021211
:1031F0000A5C851A82851B8385080A750B00E065C9
:103200000A7004A3E0650B701B7402120A92E0F8C6
:10321000A3E0F9E8F50A750B00EEC3950AFAEF95FD
:103220000BFB80587402120A92E05400F8A3E05499
:1032300080F9E849600AEE24FCFEEF34FFFF808449
:103240007402120A92E02404F8A3E03400F9C3EEF9
:1032500098EF99401D7402120A92E0F8A3E0F9EE8B
:10326000C398F8EF99F9E8C39404FEE99400FF02CB
:1032700031C47A007B0080047A007B007404120A57
:103280005C7F04020B7074EE120A9E74FC120A46F4
:10329000890A8A0E8B0F8C0C8D0D7416120A92E01F
:1032A000F508A3E0F5097E007F00C3E50C9EE50D5F
:1032B0009F404A7510047511007810120CB1740209
:1032C000120A92AC82AD83E5082EFAE5093FFB9025
:1032D000055FE0F912064C7402120A5C851A8285B9
:1032E0001B83AC82AD83E50E2EFAE50F3FFBA90AE6
:1032F00012074EEE2404FEEF3400FF80AD7404127A
:103300000A5C7F0A020B7074F0120A9E74FC120AA7
:1033100046890C750AFF747D650C7004747E80020A
:10332000747DF50B750804750900900560E024FCB8
:10333000F8A3E034FFF9E8FEE9FFC3EE9404EF944C
:1033400000500302348A900562E060030234A475E1
:103350000E04750F00780E120CB17402120A92ACB2
:1033600082AD83EEFAEFFBA90C12064C7402120A2E
:103370005C851A82851B83E064FF7004A3E064FF10
:1033800070537402120A92E05400F8A3E05480F9DA
:10339000E849600AEE24FCFEEF34FFFF809C7402D3
:1033A000120A92E02404F8A3E03400F9C3EE98EF87
:1033B00099401C7402120A92E0F8A3E0F9EEC39857
:1033C000F8EF99F9E8C39404FEE99400FF80030242
:1033D00034A402333A851A82851B83E05400F8A393
:1033E000E05480F9E849600302346D851A82851B38
:1033F00083850A0E750F00E0650E7004A3E0650F6B
:10340000606B851A82851B83E0F8A3E0F9E8F50A72
:10341000AC0AAA08AB09A90B1207368A0E8B0FE576
:103420000E450F70487402120A92E0F8A3E0F9EE1C
:10343000C398F50EEF99F50F780E120CB1740412C3
:103440000A92E0FCA3E0FDAA08AB09A90B12073C15
:103450007402120A5C7402120A92E02404F8A3E0D7
:103460003400F9E50828F508E50939F50974021270
:103470000A92E0F8A3E0F9EEC398F8EF99F9E8C3EF
:103480009404FEE99400FF02333AA90B12071E9040
:103490000562E0700A900560E508F0A3E509F0A96F
:1034A0000C1207247404120A5C7F08020B7074F07B
:1034B000120A9E74FC120A46890A8A088B09ECFEDD
:1034C000EDFF7414120A92E0F50C850C0B74FF25C5
:1034D0000BF50CE50B6063750E04750F00780E128A
:1034E0000CB17402120A92AC82AD83AA08AB09A98E
:1034F0000A12064C7402120A5C750E04750F0078ED
:103500000E120CB1EEFCEFFD7402120A92AA82AB0D
:10351000831205267402120A5CE970089005627431
:1035200001F08016E5082404F508E5093400F509E2
:10353000EE2404FEEF3400FF80907404120A5C7FD6
:1035400008020B7074EE120A9E890C8A0A8B0B8C8F
:10355000088D09850A0E850B0F7402780E120A2455
:10356000850C1075110074097810120A33E50E25C8
:1035700010FEE50F3511FF900562E07035750E0104
:10358000750F00780E120CB1AC08AD09EEFAEFFB26
:103590001206527402120A5C750D01780D120CB5F8
:1035A000AC08AD09AA0AAB0BA90C120748740112AA
:1035B0000A5C7F0A020B70C082C083120718E97090
:1035C00004790180027900D083D08202011F74F453
:1035D000120A9EEAF8EBF9740C120A92E0F508A3BD
:1035E000E0F509ECFEEDFFE8FAE9FB85080A85093C
:1035F0000BE50A24FFF508E50B34FFF509E50A455C
:103600000B601E8E828F83E08A828B83F08E828F86
:1036100083A3AE82AF838A828B83A3AA82AB83808B
:10362000CA7F04020B7074F1120A9E8A088B09EC9F
:10363000FEEDFF740F120A92E0F50CA3E0F50DA861
:1036400008A909E508AC08E509AD09EEF8EFF9E8C5
:10365000FAE9FBA80CA90DE824FFF50CE934FFF505
:103660000DE8496030ECF8EDF988828983A3AC82DB
:10367000AD838A0A8B0B850A82850B83A3AA82AB52
:103680008388828983E0F8850A82850B83E06860FD
:10369000C27900800279017F07020B7074F3120A6D
:1036A0009EEAFEEBFF890C8C0A8D0B780A120CB196
:1036B000850C08750900AC08AD09EEFAEFFB12079E
:1036C000CC7402120A5C7F05020B7074F4120A9E1D
:1036D0008A088B09E508450970067A007B00804A54
:1036E000E5082405FAE5093400FB12059E8A0A8BD9
:1036F0000BAE0AAF0BEE4F602D8E828F837400F0FD
:10370000A37400F08E828F83A3A3E508F0A3E509DC
:10371000F08E828F83A3A3A3A374FFF0EE2405FA97
:10372000EF3400FB80047A007B007F04020B70748E
:10373000F6120A9EEAFEEBFFEE4F70047905802830
:10374000EE24FFF582EF34FFF583E064FF60047937
:10375000048015EE24FBF8EF34FFF988088909AAE4
:1037600008AB091205A479007F02020B7074F712EE
:103770000A9E8908EAFEEBFF7C00EEFAEFFBA9083F
:103780001205447F01020B7074F6120A9E8908EA42
:10379000FEEBFF8C09EE4F70047905807E908F441C
:1037A000E0F8E508C398400CEEFAEFFB120538E9A3
:1037B00079038067EE24FBF582EF34FFF583E0F8B0
:1037C000A3E0F9E849700FEE24FFF582EF34FFF52E
:1037D00083E064FF600CEEFAEFFB120538E979052F
:1037E0008039E508EE24FFF582EF34FFF583E50824
:1037F000F074016509700DEEFCEFFD7A427B031257
:103800000556800BEEFCEFFD7A427B031205507AE1
:10381000007B80A908120562E979007F02020B7023
:1038200074F2120A9E890B750C00750D007E007FE4
:1038300000A2AFE433F50AC2AF900342E0F8A3E080
:10384000F988088909E50845096038E50824FFF585
:1038500082E50934FFF583E0650B7008EE4F7023B5
:10386000AE08AF09EE4F700685080C85090DE50816
:1038700024FBF582E50934FFF583E0F508A3E0F5C4
:103880000980C2E5084509600C7A007B80A90B120B
:103890000562E9800A7A007B80A90B120568E9EECF
:1038A0004F6015780C120CB1EEFCEFFD7A427B03F1
:1038B00012055C7402120A5CA80AE50AA2E092AF43
:1038C000EEFAEFFB7F06020B7074F7120A9EA2AFAE
:1038D000E433F508C2AFEC24FBF582ED34FFF58349
:1038E0007400F0A37400F08A828B83E0FEA3E0FFF3
:1038F000EE4F700B8A828B83ECF0A3EDF080408A50
:10390000828B83E0FEA3E0FFEEF8EFF9E824FBF5FD
:1039100082E934FFF583E0FEA3E0FFEE4F6011E89B
:1039200024FBF582E934FFF583E0F8A3E0F980DCBD
:10393000E824FBF582E934FFF583ECF0A3EDF0AE6B
:1039400008E508A2E092AF7F01020B7074F7120A3B
:103950009EA2AFE433FEC2AF8A828B83E0F8A3E07D
:10396000F9EC24FBF582ED34FFF583E8F0A3E9F0F0
:103970008A828B83ECF0A3EDF0EEF8EEA2E092AF3A
:103980007F01020B7074F6120A9E740A120A92E00A
:10399000F8A3E0F9A2AFE433F508C2AF8A828B83C3
:1039A000E0FEA3E0FFEC6E7002ED6F701AEC24FBFA
:1039B000F582ED34FFF583E0FEA3E0FF8A828B837E
:1039C000EEF0A3EFF0801EEC24FBF582ED34FFF562
:1039D00083E0FEA3E0FFE824FBF582E934FFF583F2
:1039E000EEF0A3EFF0EC24FBF582ED34FFF58374E9
:1039F00000F0A37400F0EC24FFF582ED34FFF583B2
:103A000074FFF0AE08E508A2E092AF7F02020B70EF
:103A100074F7120A9EE9FD908F44E0F8EDC39850C8
:103A20003FA2AFE433FEC2AFEDF87900E875F002D3
:103A3000A4C8ACF075F000A42CFC75F002E9A42C2D
:103A4000F9900356E028FCA3E0398C82F583E04A24
:103A5000F0A3E04BF0EEF8EEA2E092AF7900800226
:103A600079037F01020B7074F7120A9EE9FF908FB1
:103A700044E0F8EFC3985047A2AFE433F508C2AF73
:103A8000EAF4FCEBF4FDEFF87900E875F002A4C865
:103A9000AEF075F000A42EFE75F002E9A42EF990A8
:103AA0000356E028FEA3E0398E82F583E05CF0A3A4
:103AB000E05DF0A808E508A2E092AF790080027905
:103AC000037F01020B70E9F874FF687006C2AF79DA
:103AD000008002790702011FC082C0831205929004
:103AE00003427400F0A37400F01205C21205AA127A
:103AF00005BC1205987900D083D08202011FC082D4
:103B0000C08312058080FB74F2120A9E75080012B1
:103B10000586120646E508A8087900E875F002A4B3
:103B2000C8AAF075F000A42AFA75F002E9A42AF9EF
:103B3000900356E028FAA3E0398A82F583E0F8A3DF
:103B4000E0F9E849701174012508F98908908F445B
:103B5000E0F8E9C39840BE908F44E0F8E508C398C8
:103B60004003023C5BA2AFE433F509C2AFE508A80D
:103B7000087900E875F002A4C8AAF075F000A42A3C
:103B8000FA75F002E9A42AF9900356E028FAA3E0B6
:103B9000398A82F583E0FEA3E0FFE508A8087900F2
:103BA000E875F002A4C8AAF075F000A42AFA75F02E
:103BB00002E9A42AF9900356E028FAA3E0398A82A0
:103BC000F5837400F0A37400F085090AE509A2E00A
:103BD00092AFE508900833F0EEFAEFFBA908E5088C
:103BE000AC087D00EC75F002A4CCA8F075F000A440
:103BF00028F875F002EDA428FD74202CF582748E4F
:103C00003DF583E0F8A3E0F5838882120A9C8A0CD4
:103C10008B0DAE0CAF0D90083374FFF0A2AFE43300
:103C2000F509C2AFE508A8087900E875F002A4C854
:103C3000AAF075F000A42AFA75F002E9A42AF99016
:103C40000356E028FAA3E0398A82F583E04EF0A318
:103C5000E04FF0A809E509A2E092AF7F06020B70E1
:103C600074F4120A9EE99002C1F012045A9078008E
:103C7000E0C4540F540764037004793F8002797FD5
:103C80007508067509007808120CB17CAF7D027AC0
:103C9000EA7B0712064C7402120A5C9002AFE0F451
:103CA0007049A3E0F47044A3E0F4703FA3E0F47023
:103CB0003AA3E0F47035A3E0F4703090780EE09011
:103CC00002AFF090780FE09002B0F0907810E090A2
:103CD00002B1F0907811E09002B2F0907812E0908A
:103CE00002B3F0907813E09002B4F09002B5123D68
:103CF000F01242A09002D37406F0A3740D123FA2FA
:103D00007440F0A37401F09002DD123DF09002DCEB
:103D1000E4F09002E304123FA2123DE7123DE712E5
:103D20003FA204F0A3123FA27425123FA2F090021A
:103D3000F174FFF0A3E4F09002F3F09002F504F0C8
:103D40009002F67490F0A37401F012037612032827
:103D500012040C79017AF87B021203A09002F8E0B9
:103D600075F01484E5F004F01203A67A009002C105
:103D7000E0F91205B6907803E0644270559002F8BD
:103D8000E014F0704DC2AF123D8A00781FD0E0F60B
:103D900018D0E0F6E59F540770057509FF8003759C
:103DA000097FC4C0E0781EE6F50808E65509F50964
:103DB000740B7808120A24D0E02508F8906270E0AD
:103DC000A2E740F8E8C333906272F0906270E0D2EC
:103DD000E0F09002D8E4F0A3F07A80FB9002C1E01A
:103DE000F9120562023F9DF0A37480F0A3740222D1
:103DF00074FF123FA8F0A3F02274F4120A9EEAFEA8
:103E0000EBFFEEA2E0503F9002C3E0C39480E0508D
:103E10000FC333F8E433F9741928F5827408800E5F
:103E2000F4C333F8E433F9742728F582740839F5BC
:103E30008312427E120A9C7A009002C1E0F91205B8
:103E4000B6EE64018033548060339002F61242690A
:103E5000F9E849602179001205B09002F612428615
:103E60007808120CAD7A007B019002C1E0F91205CE
:103E7000DA7404120A5CEE6480FAEF802DEF5401CC
:103E8000600C79011205B0EEFAEF6401801CEF546A
:103E900002600AC2AF75C9AB75C95B80FEEF5404FE
:103EA000600B121106EEFAEF6404FB80179002C853
:103EB000E06401700BEE54206006EE6420FA80048A
:103EC0007A007B00023F9DC082C083C2AF120442D1
:103ED000E5E170FC75E10112034C75E1F112047229
:103EE00012034079071204EA79011204F0790212F0
:103EF000048A1204AE1204D279001204E479011289
:103F000004E4908F1F12097512047E9002E4E4F01D
:103F10001203D612039479001204F6906012E4F0B2
:103F2000A3F0906063F0751C009002C2F09002C490
:103F3000F0A3F09002C7F09002C804F09002D2748F
:103F400003F09002F4E4F0D2AFF9023F96C082C0D1
:103F5000839002AF123F8DF09002B0123F80F0903C
:103F600002B1123F80A3F09002B2123F80A3A3F0EF
:103F70009002B3123F85F09002B4123F85A38013E4
:103F8000123F8DA322123F8DA3A3A3A322E08A8216
:103F90008B8322F07900D083D08202011F7F04023C
:103FA0000B70F0A3E4F0A322F0A3F0A3F0A3F0A31E
:103FB000227F01020B70E0FAA3E0FB2274F7120AE1
:103FC0009EE9FE600574016E70327409120A92E077
:103FD000FF600574016F702412426E501FEC24FCC8
:103FE000F8ED1242735015C3EA9CEB9D400E740A23
:103FF000120A92E0F8600A740168600579120240C2
:104000009F9002E4E064017005790C02409FEEA3EA
:10401000F0E89002EAF0EF9002DC702FE4F09002FA
:10402000AFE09002DDF09002B0E09002DEF090028E
:10403000B1E09002DFF09002B2E09002E0F0900276
:10404000B3E09002E1F09002B4802E7401F090028F
:10405000B5E09002DDF09002B6E09002DEF0900252
:10406000B7E09002DFF09002B8E09002E0F090023A
:10407000B9E09002E1F09002BAE09002E2F0900222
:10408000E6EAF0A3EBF0A3ECF0A3EDF0E87004791E
:10409000008007740168700579011204BA79000282
:1040A0003FB174F0120A9EE9FEEAFF9002C2E0649A
:1040B0000970030241CAE0640A70030241CAE06465
:1040C0000B70030241CAE0640C70030241CAE06451
:1040D0000D70030241CA9002E5E0F86008740168BF
:1040E00060030242619002DCE0F8600874016860DD
:1040F000030242619002E6123FB612426E40030292
:104100004261A3124269F9E824FCFCE934FFFDC3D3
:10411000EC94FDED943F4003024261C3EA98EB99B1
:104120005003024261EF600874016F600302426154
:10413000EE70030241C41460030242619002E4E0A5
:10414000640170030241CA79021203EE9002DAEAB6
:10415000F0A3EBF09002E47401F09002E3F0EF9032
:1041600002EBF09002C2E0705612038812044E8AED
:104170000C8B0D8C0E8D0F908F17780C1208DE9023
:104180008F0B780C1209449002DA12427EA3A378B6
:104190000C120966124266C82406124298E4F0A383
:1041A000F09002E8124286780C79081208CB12428D
:1041B00066C8240E124298780C1209661203DC7944
:1041C000000242939002E4E07004792180F3A2AFF0
:1041D000E433F508C2AF7ADA7B021203F49002E40A
:1041E000E4F0120406E97046120442906182E0C2D3
:1041F000E6F0E5E170FC75E1017591BF790112040B
:10420000F075E1F19002C8E0640170187A207B003B
:104210009002C1E0F91205E67A207B009002C1E02D
:10422000F91205687A009002C1E0F91205B6E508B6
:10423000A2E092AF9002EAE0F874016870061204FE
:10424000D20241BFA3E0640160030241BFE8600302
:104250000241BF1204AE1204D279011204DE0241FF
:10426000BF79120241C19002DAE0F8A3E022EA2409
:10427000FCF8EB34FFF9C3E894FDE9943F221242C5
:1042800069F583888222E0F508A3E0F509E4F50AE0
:10429000F50B227F08020B70F582E83400F58322CB
:1042A0009002AFE09002BBF09002B0E09002BCF050
:1042B0009002B1E09002BDF09002B2E09002BEF038
:1042C0009002B3E09002BFF09002B4E09002C0F020
:1042D00022C082C083900324E4F090032374FFF093
:1042E000900320F090031FE4F090031EF090032150
:1042F000F0A3F00248DC74EC120A9E900321E0F572
:104300000CA3E0F50DE50C450D70061203640245A3
:1043100011850C82850D83E0F914600A146007246E
:10432000FE60030245111203E88A088B09AE08AF4C
:1043300009EE240EF50AEF3400F50B124690FAA8A8
:104340000CA90DEE687002EF69600302445E74020E
:104350006A600302450AEE2415F510EF3400F511EA
:10436000851082F583E060391246A07003A3E069EE
:10437000602F12044E8A0C8B0D8C0E8D0F908EDFE9
:10438000780C1208DE780C120CAD85088285098342
:104390001209751210347404120A5CE960030245B4
:1043A0000A12044E8A0C8B0D8C0E8D0F908ECF78D6
:1043B0000C1208DE908F0B780C1209448508828558
:1043C0000983E50CF0A3E50DF0A3E50EF0A3E50FDE
:1043D000F0850882850983780C120957851082853B
:1043E0001183E0640170269002E8E0F508A3E085FF
:1043F0000810F511E4F512F513780C79101208CBBA
:10440000850A82850B83780C120966804E850A82A4
:10441000850B83120CC4AA0CAB0DAC0EAD0F1210A1
:10442000347404120A5CE9640170308508828509DD
:1044300083C082C083124516D083D082780C1208C4
:10444000DE850A82850B83780C1209669002EEE005
:104450006427700474258002E004F002450A7402A7
:104460006A60030245111203889002EBE064017058
:10447000169002EAE0701079011204D81204AE120C
:1044800004D279001204DE1246A07003A3E0696032
:104490002C12044E8A0C8B0D8C0E8D0F908EDF78B3
:1044A0000C1208DE780C120CAD8508828509831287
:1044B00009751210347404120A5CE9704712044E34
:1044C0008A0C8B0D8C0E8D0F908ECF780C1208DE1F
:1044D000908F0B780C120944850882850983780C2B
:1044E000120966850882850983C082C08312451639
:1044F000D083D082780C1208DE850A82850B8378FF
:104500000C1209669003207402F0EEFAEFFB12031E
:10451000E27F0C020B709002E8E0F508A3E085084A
:104520000CF50DE4F50EF50F2274F0120A9EEAFE6A
:10453000EBFF8E828F83A3A3A3A3A3A3E0FAA3E040
:10454000FB120436EE2402F8EF3400F988088909DA
:104550008882F58312097512042A850882850983E9
:1045600012097512041EEE240E12467C12097512F1
:1045700004308E828F83E06440701CEE2412F8EFCA
:104580003400F988828983E0906064F088828983AE
:10459000A3E09060658006906064E4F0A3F090036F
:1045A00021EEF0A3EFF0EE241612467CE0F8A3E033
:1045B000F5838882120A9C906054E4124684A31208
:1045C0004684906182E0C2E6F07591BFEE2415F852
:1045D000EF3400F9880A890B8882F583E064017062
:1045E00003120460E5E170FCEE241412467CE0F84E
:1045F00074FF68600288E1850A82850B837401F08C
:104600009002C8E06401706F12044E8A0C8B0D8C0E
:104610000E8D0F780C120CAD850882850983120966
:10462000751210907404120A5C8A088B098C0A8D2A
:104630000B908EC7780C1209577808790C12083243
:10464000740378081208B2E50824F4F508E5093483
:1046500001F5099002F5E06003120586E4F50AF51C
:104660000B7808120CAD7A207B009002C1E0F912A1
:1046700005DA7404120A5C7F08020B70F582EF34CD
:1046800000F58322F0A3F0A3F0A3F0A3F0A3F0229F
:10469000EE2402F508EF3400F5098E828F83E022C4
:1046A0009002E6E0F8A3E0F9A3E0682274EE120AB3
:1046B0009E890874FF6508703990031FE0540770E5
:1046C0000302482379041203FAE9640170047904AF
:1046D000801A79011203FAE9640170047901800CEF
:1046E00079021203FAE964017008790212040002E7
:1046F0004827A9081204008A108B11A9081203FA8E
:10470000E9640170057509018003750900E510244D
:1047100002F50AE5113400F50BE50814600D14608C
:104720007A24FE70030247BB02482379021203FA7F
:10473000E96401704979021204008A0C8B0DAE0CF9
:10474000AF0DE509A2E0502F8E828F83A3A3780CD2
:10475000120957908F1B780C1208DE780C120CADE2
:10476000850A82850B831209751210347404120AAB
:104770005CE9700302481DEEFAEFFB02482779045A
:104780001203FAE96401601DE509A2E05006AA10CF
:10479000AB1180047A007B0002482779041203FAE7
:1047A000E9640170047904802C79011203FAE96448
:1047B000016012E509A2E0506A806279011203FAF1
:1047C000E9640170047901800C79021203FAE9644A
:1047D00001704479021204008A0C8B0DAE0CAF0DEF
:1047E000E509A2E050918E828F83A3A3780C120971
:1047F00057908F1B780C1208DE780C120CAD850ACE
:1048000082850B831209751210347404120A5CE954
:1048100060030247778006E509A2E05006AA10ABC4
:104820001180047A007B007F0A020B7074F7120A71
:104830009EE9FE900324E0705B7401F0EE90032388
:10484000F012044E900325120981900329E4F0A38D
:10485000F090033174FFF0A3F0A3F0A3F0900337BE
:104860007401F0A3F0A3E4F0A3F090031FE04EF076
:1048700090031EE004F06401600A74806E600574A9
:10488000406E700A9003217423F0A37403F07A231E
:104890007B0380047A007B007F01020B70C082C022
:1048A000838A828B83E0F8A3E0F98A828B83E4F029
:1048B000A3F088828983A3F088828983E0F4F8904A
:1048C000031FE058F090031EE014F0700B900321DA
:1048D000E4F0A3F09002C2F08002E0F9D083D0822D
:1048E00002011FC082C083E9F8900323E0687005CD
:1048F000A3E0F98002790080E3C082C083900323A3
:10490000E069700CA3E0640170067A237B038004E5
:104910007A007B0080C6C082C08390031E80BB7477
:10492000F6120A9E74FF120A4653F1FE43F30C7509
:10493000868075C48053FF3F85FFFF7E787F0375B7
:10494000D6888E828F837470F08E828F83A374C119
:10495000F08E828F83A3A3A3A3E0541FF08E828FD7
:1049600083A3A3A3A3E08E828F83A3A3A3A3F08E2C
:10497000828F83A3A3A3A3A3A3E0C2E7F08E828FB9
:1049800083A3A3A3A3A3A3E0D2E7F08E828F83A384
:10499000A3A3A3A3A3E0549FF08E828F83A3A3A31A
:1049A000A3A3A3E0D2E6F08E828F83A3A3A3A3A345
:1049B000A3E054E0F08E828F83A3A3A3A3A3A3E07C
:1049C000440EF08E828F83A3A3A3A3A3A3A3E054DA
:1049D0003FF08E828F83A3A3A3A3A3A3A3E08E8221
:1049E0008F83A3A3A3A3A3A3A3F08E828F83A3A3E8
:1049F000A3A3A3A3A3E054CFF08E828F83A3A3A38A
:104A0000A3A3A3A3E0D2E4F0788F7903E4E9F88EBE
:104A1000828F83A3A3F08E828F83A3A3A3748FF0CE
:104A20008E828F83A3A3A3A3A37480F08E828F832F
:104A3000A3A3A3A3E054E0F08E828F83A3A3A3A338
:104A4000E08E828F83A3A3A3A3F08E828F83A3A380
:104A5000A3A3A3A3A3E0C2E3F08E828F83A3A3A3A7
:104A6000A3A3A3A3E08E828F83A3A3A3A3A3A3A343
:104A7000F08E828F83A3A3A3A3A3A3A3E0C2E2F03B
:104A80008E828F83A3A3A3A3A3A3A3E08E828F838D
:104A9000A3A3A3A3A3A3A3F08E828F83A3A3A3A303
:104AA000A3A3A3E054FCF08E828F83A3A3A3A3A3AC
:104AB000A3A3E0D2E1F09070C1E0851A82851B8348
:104AC000F053D1F775D608750800750901780812FA
:104AD0000CB1E5C2F8790064FFFCE96400FD7A8F4F
:104AE0007B031207CC7402120A5C8A088B098508C2
:104AF000828509837401120A5C7F02020B70C082F6
:104B0000C083EA241BF582EB3400F583E0F8A3E0D0
:104B1000F9900514E8F0A3E9F08A828B83A3E0649E
:104B200003600A8A828B83A3E06404700575C2D88F
:104B3000800375C23B8A828B83A3E0600B14600DF7
:104B400014600F14600C800F75C508800D75C509C1
:104B5000800875C50A800375C50B8A828B83A3A361
:104B6000E0600875C44243F310800375C402758683
:104B7000C0E5C4A2E65005C28543FD20D2E9D0833A
:104B8000D08202011F74F5120A9EEAF8EBF97A004E
:104B90007B00C3EA9CEB9D4003024C7490048FE0C1
:104BA000FE7F00EE75F002A4CE85F00875F000A43B
:104BB0002508F50875F002EFA42508FF748F2EF57F
:104BC0008274033FF583E0FEA3E0FFE4EFFE65C2DD
:104BD0006003024C7490048FE0FE7F00EE75F002DB
:104BE000A4CE85F00875F000A42508F50875F0023C
:104BF000EFA42508FF748F2EF58274033FF583E040
:104C000088828983F088828983A3A882A983E5C2E8
:104C1000FE7F0064FFFEEF6400FFE4CEFF90048F90
:104C2000E0F508750900E50875F002A4C50885F0EF
:104C30000A75F000A4250AF50A75F002E509A42515
:104C40000AF509748F2508F58274033509F583EE9A
:104C5000F0A3EFF090048FE0240190048FF0C39450
:104C600080400690048F7400F0EA2401FAEB3400CF
:104C7000FB024B9290048FE0900490F0E5C4A2E612
:104C80005002C2857F03020B7074F7120A9EEAF885
:104C9000EBF9900511E0FA900512E0C39A501F90CD
:104CA0000511E0FA7B00900512E0FE7F00EAC39E4A
:104CB000FAEB9FFBEA24FFFAEB34FFFB802390051D
:104CC00012E0FA7B00C3E49AFAE49BFB900511E042
:104CD000FE7F00EA2EFAEB3FFBEA247FFAEB34007A
:104CE000FBC3EA9CEB9D50067A007B00805E7A0055
:104CF0007B00C3EA9CEB9D504F88828983E0C0E033
:104D0000900512E0FE7F0074912EF58274043FF549
:104D100083D0E0F088828983A3A882A983900513B9
:104D20007400F0900512E0C3947F4008900512745F
:104D300000F08007900512E02401F0439A04EA2471
:104D400001FAEB3400FB80AAECFAEDFB7F01020BC9
:104D50007074F4120A9E7508001206A08A0A8B0B62
:104D6000AE0AAF0BEE4F6003750804C3EE9470EF0C
:104D700094004009D3E50892E0F5088018C3EE944A
:104D80007FEF9400400FD3E50892E1F508E5C4A257
:104D9000E65002D285900513E0600D900513740073
:104DA000F0D3E50892E4F508E508601E900514E0EC
:104DB000F8A3E0F9E8496012AA087900900514E028
:104DC000F8A3E0F5838882120A9C7F04020B7074BA
:104DD000F7120A9E7A007B007D00900490E0FEE5C9
:104DE000C4A2E65002D285EEF87900E875F002A47C
:104DF000C8ACF075F000A42CFC75F002E9A42CF905
:104E0000748F28F582740339F583E0F8A3E0F9E4A0
:104E1000E9F865C2701FEA2401FAEB3400FB740163
:104E20002EF8E8FEE8C3948040027E00C3EA948036
:104E3000EB940040B2EA4B706A900516E0C3948090
:104E40005053900516E0F87900E875F002A4C8AC5C
:104E5000F075F000A42CFC75F002E9A42CF9748F15
:104E600028F582740339F583E0F8A3E0F9E4E9F862
:104E700065C27018900516E0900490F0900516E059
:104E800090048FF07A007B007D018009900516E088
:104E90002401F080A4900516E06480700690051649
:104EA0007400F0E5C4A2E65005ED7002C2857F01F2
:104EB000020B7002011FC082C083120682D083D011
:104EC0008202011F74F7120A9E8908EAFEEBFFE5D1
:104ED000087007EEFAEFFB12068879007F01020BDB
:104EE0007074F5120A9E890AEAFEEBFF8C088D09A0
:104EF000E50A700DAC08AD09EEFAEFFB12068E80E4
:104F0000047A007B007F03020B7074F5120A9E89FD
:104F10000AEAFEEBFF8C088D09E50A700DAC08ADBE
:104F200009EEFAEFFB12069480047A007B007F03FF
:104F3000020B70C082C08312069AD083D082020115
:104F40001F74F7120A9EE9FE70051206A080047A0B
:104F5000007B007F01020B70C082C0831206A6D0C6
:104F600083D08202011FC082C08312046612046CC7
:104F70001204721204600254DDC082C0839061B1D9
:104F8000E0C2E0F0E0D2E0F0906188E0640470F804
:104F90000254DDC082C0839061B1E0C2E0F0906154
:104FA000F3E4F09061F2F0F8F9124FF39061F0122F
:104FB000502E94FEE9940D40F00254DDC082C0836F
:104FC0009061F3E4F09061F2F0F8F99061F0E0FAAA
:104FD000124FF36A700A12503394FEE9940D40EBBD
:104FE00074FE687003740D697004790080027901A1
:104FF0000254DD740028F582748039F583E022C004
:1050000082C0839061C0E0FAE4F0F8F9E82400F58A
:1050100082E93460F583E412502E9480E9940140D3
:10502000EBEA9061C0F090618A74010254D8F012EA
:10503000503322E8240108E93400F9C3E822C08291
:10504000C0838A828B83E0906016125409A3E0909B
:10505000601712507C9060181250859060191250A1
:105060008A90601A12508F90601BF0E99060157062
:1050700005E0C2E08003E0D2E00254DCF08A828BDB
:1050800083A3A3E02212509AE022125095E022124C
:105090005095A3E02212509AA322F08A828B83A318
:1050A000A3A32274F0120A9EEA906005F0EBA3F02D
:1050B000ECA3F07F08020B70C082C083740169907A
:1050C00060037005E0D2E08003E0C2E00254DCC07F
:1050D00082C083906003E054F9490254DCC082C06E
:1050E00083EA90600AF0EB54010254DBC082C08373
:1050F000E990600C7005E0C2E08003E0D2E0025469
:10510000DCC082C083E990600C7005E0C2E18003DE
:10511000E0D2E10254DCC082C083906061E00251C1
:105120005374F0120A9E9061947420F0EAA3125412
:10513000680250B1C082C08390033BE4F0906022CB
:10514000F0A3F0A37830F0A3D8FC0254DDF07F0286
:10515000020B70F90254DD74F4120A9EEAFEEBFFB2
:1051600089088C0990033BE0640870047903807C13
:10517000120508E9F470687900750A01750B00E9F9
:10518000780A120A33AC0A906022E05C7055E04C59
:105190001251F1FA74603BFB78068E828F831254B1
:1051A000348E828F83A3AE82AF838A828B83A3AA3D
:1051B00082AB8318E870E3E508700AECF4F89060BD
:1051C00023E0588005906023E04CF090033BE0041E
:1051D000F07401650970051204C080031204CC79D3
:1051E00000800909E9C39408408F79017F04020B0C
:1051F00070F0E975F006A4FAABF074242A22C0829C
:10520000C083E99060147005E0C2E28003E0D2E25E
:105210000254DC74F6120A9E750801750900E978DB
:1052200008120A33906009E0450802514D74F712E4
:105230000A9E12050874FF6960071204C079008095
:105240000279057F01020B7074F6120A9E7508013F
:10525000750900E97808120A33E508F4F890600946
:10526000E05802514DC082C083906009E40254DCD2
:1052700074F2120A9E74FA120A467A007B60E97090
:10528000027A33906009E0F8906022E0F50BA3E029
:10529000F99061C07401F0E88A828B83F0A3E50B7A
:1052A000F0A3E9F0A3AA82AB839061C0E4F0F50A11
:1052B000750C01750D00E50A780C120A33E50C55E2
:1052C0000B6056750900E50A75F006A4F8A9F0858B
:1052D0000982AC82742428FE746039FFEE2CF582BA
:1052E000EF1253FEC0E01253DAD0E012540F40DF49
:1052F0009061C07401F07509001253ECC0E0E82C15
:10530000FCE93400FDEA2CF582EB3DF583D0E01298
:10531000540F40E59061C0E4F0050AE50AC3940823
:10532000408E7406120A5C7F06020B7074F2120A39
:105330009E74FA120A467A007B60E970027A331290
:105340005404E0F8A3E0F50BA3E0F9A3AA82AB8331
:105350009061C0E4F0E8906009F0E50B906022F005
:10536000E9A3F0750A00750C01750D00E50A780CCB
:10537000120A33E50C550B60559061C07401F0754D
:105380000900E50A75F006A4F8A9F0850982AC8247
:10539000EA28FEEB39FFEE2CF582EF1253FEC0E057
:1053A0001253DAD0E012540F40E19061C0E4F0F5FE
:1053B000091253ECC0E0E82CFCE93400FD74242C05
:1053C000F58274603DF583D0E012540F40E3050A86
:1053D000E50AC39408408F025322851A82851B83F5
:1053E000E5822CF582E5833400F58322850982ACC1
:1053F00082851A82851B83E5822CF582E583340041
:10540000F583E0229061C07401F08A828B8322F0E0
:105410000509E509C3940622C082C0837A007B6037
:10542000E970027A33125404E4F0A3F0A3F090611F
:10543000C00254DC125438221254E4F022C082C05C
:1054400083E99060020254DCC082C083E99060026C
:105450007005E0D2E38003E0C2E30254DCC082C006
:1054600083E99061C60254DCF0EBA3F0ECA3F0ED0D
:1054700022C082C083E9601714601C14601E14608F
:105480002314602514602A14603314603C8041901A
:1054900061E9E054FC80389061E9801C9061E9E0AA
:1054A000C2E0802B9061E9801B9061E9E0C2E1805D
:1054B0001E9061E9E0C2E1F0E0D2E080129061E983
:1054C000E0C2E0F0E0D2E180069061E9E04403F060
:1054D000800B75E18202011FF0A3F0A3F0D083D00E
:1054E0008202011FE08A828B832274F5120A9E8950
:1054F0000A7900750801750900E97808120A3390E5
:105500006022E055086052E975F006A4FCADF07425
:10551000242CFC74603DFD750800850882AE82EC89
:105520002EF582ED1253FEF8EA2EF582EB1253FEB1
:105530006870090508E508C3940640DE740665082E
:105540007017906023E0F508750900E97808120AE1
:1055500014E5085401650A600909E9C394084093F9
:1055600079FF7F03020B70C082C083906190740446
:10557000F0A37448F0A3E4F09061807440F090616F
:10558000BC7407F09061877469F09061B67416F08E
:10559000790012036A7902120370901224E493F4E2
:1055A0006006E493F912034679051204FC0257A53C
:1055B000C082C083E9540FF9906185E0696012E50B
:1055C000C654804449F5C6E59E547F644970F8E9A5
:1055D000F053C680E59E547F70FA0257A574F71207
:1055E0000A9EE5A8FE53A87E120352C2BA539AFE41
:1055F000C289759B00C2C212035875A91175B905FD
:1056000012035ED2BA439A0174805E42A87F0102FF
:105610000B70C082C083906181E4F0A30257A27531
:10562000E90075910075BF0002011FC082C0839020
:105630006181E4F0A374C0F0A3E40257A4C082C067
:105640008374F8120A469002C4125AFAE8497003A9
:105650000257099002C4E0544060237908851A82F9
:10566000851B83AA82AB831203A0851A82851B83C4
:10567000AA82AB831202E69002C4E054BFF0E0A21B
:10568000E0500F790012036A1202EC9002C4E05459
:10569000FEF0E05402600F790112036A1202EC90EE
:1056A00002C4E054FDF0E05404600F79001203706E
:1056B0001202F29002C4E054FBF0E05408600F794B
:1056C000011203701202F29002C4E054F7F0E054A9
:1056D00010600F79021203701202F29002C4E054BB
:1056E000EFF0E05420600F79031203701202F29081
:1056F00002C4E054DFF0A3E05401600D12037C12F9
:1057000002F89002C5E054FEF07408120A5C0257D9
:10571000A5C082C083E9600514602A804F90619A19
:105720007433F0A37455F09061A0743AF09002F3D2
:10573000E064017009C2919002C67467802D9002E6
:10574000C67461802690619A743FF0A3745AF090F9
:1057500061A0747FF09002F3E064017009D291902F
:1057600002C6747180059002C6746AF08037C082E8
:10577000C083E9600B14600D14601714600C802066
:10578000901228801590122980109002F3E0640195
:10579000700590122A800390122BE493906186F09A
:1057A0008003F0A3F0D083D08202011F74EE120AAE
:1057B0009E74F4120A46851A82851B83AC82AD83DF
:1057C00075838E7582F7740412099A90122893F4E7
:1057D00060030258D6907808E0C394025003025840
:1057E000B67404120A92AC82AD8375838E758250B2
:1057F000740812099AFC7EFF7FFF8E0C7D008C825C
:1058000085820E800F74086D606D74096D60687418
:105810000A6D60638D0875090074027808120A33F6
:105820001258E0120957A909E50AC9F88810741836
:1058300078081208B2E5104508FAE9FBE50EC33313
:10584000F8E433F97404120A92E58228F582E583BC
:1058500039125AF8C3E89AE99B4008E8C39AF8E974
:105860009B8006EAC398F8EB99F9C3E89EE99F503C
:1058700006E8FEE9FF8D0C0DEDC39413408774FF1D
:105880006E700374FF6F6024850C08740278081230
:105890000A331258E0120957851A82851B83E58264
:1058A000250EF582E583125B04E508F00CECC39449
:1058B0000450030257F67508017509007808120CA8
:1058C000B17402120A92AC82AD837A8A7B0412060A
:1058D000527402120A5C740C120A5C7F0A020B708A
:1058E00074482508F58274783509F583780822C054
:1058F00082C083906186E0F890122BE4936870096F
:1059000090122AE493906186F09061AE7468F0A3DF
:10591000746AF090624574FBF0A304F053F4FD4305
:10592000FE029002F37401F09061A0E0643A70040A
:1059300079008002790112036A0257A5125B109464
:105940000622E0C4333354C022C082C0839002EEEA
:105950007425F09002EC7401F0A3E4F07A01FB12DC
:1059600004901259952416F582E8125B04748EF0A7
:10597000A37403F09002EBE0640170169002EAE079
:10598000701079011204D81204AE1204D2790012F8
:1059900004E40257A59002DAE0F8A3E0C82274F606
:1059A000120A9E74FA120A469002E3E0640170083B
:1059B0001203829002E3E4F075E1F1125995241587
:1059C000F582E8125B047401F09002E5E064017076
:1059D00053908E80C082851A82851B83AC82AD83F2
:1059E00075838ED082740612099A75D90D9002DCE7
:1059F0001259424403F5D97800880874DD125B4ED1
:105A0000740212593C40F278008808851A82851B7E
:105A100083E582125B4EE58312593C40EC75E195BB
:105A2000790180027900120496900819125A9D7427
:105A3000B8F0A37403F0A3125A9D125A9D125AA6ED
:105A400074BEF0A37403125ABB9002DCE0F97ADD55
:105A50007B021204789002EEE0F91210F87901123C
:105A6000049C908EE71209751204A8908F1F1209EA
:105A70007512047E79001204F09002DA125A921222
:105A80005B047416F09002C27405F004120A5C0202
:105A90005B1CE0F8A3E0C82414F582E82274B2F09D
:105AA000A37403F0A322125AAA2274ACF0A37403C5
:105AB000F0A374ACF0A37403F0A322125ABF22F037
:105AC000900827125ACBA3125ACB22125AAA74ACAE
:105AD000F0A37403F022C082C0839002DA125AEE5F
:105AE000F0A3F09002EEE0F91210F80257A5125957
:105AF000982406125B08E422F583125AFE22E0F88D
:105B0000A3E0F922125B0B22F582E83400F5832230
:105B10003400F583E0F5D908E8C322F07F02020BD8
:105B200070125B25223400F583E4F02274F6120A29
