:020000040000FA
:0600000002011A020F0CC0
:03002B000213D9E4
:030033000213BBFA
:03005300020F8217
:03006B00021392EB
:10008300020E0FE5C754F84401F5C77901220000B9
:100093000080FB120086B90003020104E4791C7896
:1000A30002B800028004F709D8FCE4791E7802B88C
:1000B30000028004F709D8FCE490028178D9790220
:1000C3008002F0A3D8FCD9FA781B90014A7A01BACE
:1000D30000028007E493A3F608DAF97A597B0490C7
:1000E300014B787379018015E493A3AD82AE838AC3
:1000F300828B83F0A3AA82AB838D828E83D8E9D9C6
:10010300E775826C758377740012012C7582917583
:100113008300740012012C75D00075813F7519811D
:10012300751A02759F00020096C09FF59FE473D075
:100133009F22D083D082C09FE493C0E0740193C018
:10014300E0740293F59F2201CF01DB01FF0000B4AD
:10015300000028002800283075A000A000A000A0FF
:100163000000080008E001F000100010001000106B
:10017300001000100050005000500010001000D07C
:10018300070000000000000F0001000500307507A4
:10019300001000010081FF00000000FF3D033D034C
:1001A3003D033D033D033D033D033D033D033D034C
:1001B3003D033D033D03FFFFFF001201350814001B
:1001C300120135001500120135341500120135B640
:1001D3001500120135FE15001201356216001201D9
:1001E30035EF1600120135A91700120135B81A00B0
:1001F300120135431C00120135661C001201352F14
:10020300600012013557600012013585600012014C
:1002130035BC60001201350761001201355F6100D2
:100223001201358D61001201354A6200120135FA5F
:1002330074001201351275001201351665001201A2
:10024300352165001201353365001201350B660057
:10025300120135106600120135F7660012013503ED
:1002630069001201352B690012013568690012011A
:1002730035A26900120135096A00120135526A007C
:100283001201357C6A00120135A16A00120135732F
:100293004300120135A643001201358644001201C2
:1002A30035AB44001201353D46001201353E2500B1
:1002B300120135D72600120135A527001201352B6F
:1002C30028001201359A28001201358029001201F5
:1002D300351838001201356138001201358E3800A7
:1002E300120135C33800120135D03800120135DC54
:1002F3003800120135EE3800120135C239001201FF
:10030300351F3A001201355D3A00120135A03B005A
:10031300120135FA3B001201354F3C0012013587BB
:100323003D00120135DD3D00120135396F00120128
:1003330035456F00120135237000120135FD13009E
:10034300120135D048001201356649001201351DEE
:100353004A00120135474A001201353A4C00120196
:1003630035624D00120135AF2B00120135D42B003D
:10037300120135072E001201358A2F001201350AAA
:1003830031001201357B3100120135B83100120101
:1003930035DB3100120135F131001201350E320027
:1003A3001201351456001201358A5600120135A088
:1003B3005600120135E156001201351B5700120198
:1003C30035945700120135CF5700120135425800BA
:1003D30012013580580012013589580012013595F4
:1003E3005800120135C45800120135DA58001201C1
:1003F30035035900120135665900120135173200D1
:100403001201352A32001201354432001201356DD2
:100413003200120135B03200120135EF3200120101
:10042300355433001201356933001201358033002E
:100433001201358E33001201359D3300120135B29E
:100443003300120135C73300120135D233001201D4
:1004530035E53300120135083400120135AF34009D
:10046300120135C43400120135DE3400120135F9AE
:100473003400120135163500120135213500120101
:1004830035DD3500120135C93600120135EE36006F
:10049300120135F936001201350E370012013522EB
:1004A30037001201358337001201359B37001201E3
:1004B30035AB7500120135D7750012013532760060
:1004C300120135911D001201359B1D00120135E209
:1004D3001D001201353C1E001201355D1E00120184
:1004E30035352100120135822100120135AB21007F
:1004F300120135B52100120135212200120135B355
:100503002200120135FD22001201353323001201AE
:1005130035BF2300120135002400120135372400B2
:100523001201354924001201356824001201357186
:1005330024001201356B72001201350A67001201A3
:1005430035406700120135766700120135C1680036
:100553001201354476001201355A760012013564D2
:100563007600120135AE76001201350D78001201C6
:1005730035994D00120135AE4D001201355E4E0026
:100583001201359E4E00120135B74E00120135F2AD
:100593004E001201353F4F00120135784F00120112
:1005A30035795100120135EB5100120135D26D003E
:1005B300120135026E001201359A6E00120135B236
:1005C3006E00120135F46E00120135DD7800120160
:1005D30035447400120135557400120135C4770097
:1005E30012013503780012013520790012013562BA
:1005F30073001201357273001201358A7300120100
:10060300353E7400120135677100120135EC71003B
:10061300120135527200120135C96A00120135F216
:100623006A00120135586B00120135786B00120114
:1006330035C96B00120135246C001201355E6C0064
:10064300120135616C00120135965900120135AB68
:100653005900120135D65A00120135525B001201BE
:1006630035C65B00120135E05B00120135F75B0014
:100673001201350A5C00120135245C001201353B7E
:100683005C00120135615C00120135B25C0012019D
:1006930035F851001201350F52001201358952000D
:1006A3001201356D5300120135445500120135A96D
:1006B3005500120135005600120135F87F00120172
:1006C30035D162001201356C6400120135CD64002E
:1006D3001201351365001201356B6C00120135A848
:1006E3006C00120135D76C00120135186D00120130
:1006F30035276D00120135366D00120135DC7600A9
:100703001201356270001201358C7000120135043C
:100713003E00120135CB3E00120135083F001201A5
:1007230035683F00120135BE3F00120135234000FA
:10073300120135C740001201355E4200120135EB4C
:100743004200120135524300120135E75C001201E9
:1007530035475D00120135AA5D00120135445E0084
:10076300120135AD5F00120135897800120135534E
:100773007800120135B57800120135027900E06680
:10078300701008A3E066700A08A3E066700408A36B
:10079300E06622C3E7960809E7960809E796080981
:1007A300E79622C3E09608A3E09608A3E09608A381
:1007B300E09622C008C3E096F50808A3E096420835
:1007C30008A3E096420808A3E09645087001D3D039
:1007D3000822080808EAC0E0EBC0E086F0E7A4FAC4
:1007E300180986F0E7A42AFA180986F0E7A42AFA7A
:1007F300180986F0E7A42AFA1986F0E7A4FBE5F0C6
:100803002AFA190886F0E7A42BFBE5F03AFA19084F
:1008130086F0E7A42BFBE5F03AFA18180986F0E70F
:10082300A4C5F02BFBE43AFA1908E7C5F0C6A426E1
:10083300F6E5F03BFBE43AFA1886F0E7A4F6E5F0B8
:100843000826F6E43B08F6E43A08F6D0E0FBD0E0ED
:10085300FA22E4CFC0E0E4CEC0E0E4CDC0E0E4CCD3
:10086300C0E075F020E626F608E633F608E633F630
:1008730008E633F6181818EC33FCED33FDEE33FEBF
:10088300EF33FFC3EC9709ED9709EE9709EF97193B
:100893001919400FFFEC97FC09ED97FD09EE97FE40
:1008A300191906D5F0BFECF709EDF709EEF709EFD3
:1008B300F7191919D0E0FCD0E0FDD0E0FED0E0FF3D
:1008C300226016080808C6C313C618C613C618C67E
:1008D30013C618C613C6D5E0EA2270090808082211
:1008E3006016181818C6C333C608C633C608C633FD
:1008F300C608C633C6D5E0EA22E627F60809E63776
:10090300F60809E637F60809E637F622E026F60880
:10091300A3E036F608A3E036F608A3E036F622E0B5
:1009230026F008A3E036F008A3E036F008A3E0368B
:10093300F022C3E697F60809E697F60809E697F664
:100943000809E697F622C3E096F008A3E096F008BC
:10095300A3E096F008A3E096F022E056F608A3E0A1
:1009630056F608A3E056F608A3E056F622E0F6088A
:10097300A3E0F608A3E0F608A3E0F622E6F008A356
:10098300E6F008A3E6F008A3E6F022E0FAA3E0FB12
:10099300A3E0FCA3E0FD22EAF0A3EBF0A3ECF0A3B9
:1009A300EDF022CAC0E0E6F0A308DAFAD0E0FA22BA
:1009B300CAC0E0E0A3C582CCC582C583CDC583F0A0
:1009C300A3C582CCC582C583CDC583DAE6D0E0CA90
:1009D30022B90010BB0008E88AF084F8AAF022E4E8
:1009E300FBC8FA22EB70227B10C833C8C933C93362
:1009F3005007C39AC3DBF280069A50012ADBEAC888
:100A030033F4C8C933F4C9FA2275F008E4C833C80B
:100A1300C933C933C99AC99B5004C92AC93BD5F004
:100A2300ECFBC833F4C8E4C9FA22600D08C6A2E798
:100A330013C618C613C6D5E0F322600C08C6C31349
:100A4300C618C613C6D5E0F422700422600D18C67A
:100A5300C333C608C633C6D5E0F41822251910AF30
:100A630008F519400C151A8008F5194002151AD219
:100A7300AF2200C0D0251910AF08F519500C051A84
:100A83008008F5195002051AD2AFD0D0222519F5E6
:100A93008210AF08F519400C151A8008F5194002A9
:100AA300151AD2AF851A83222519F582E4351AF572
:100AB3008322E4732519C582C0E0E51A34FFC58398
:100AC300C0E0E519C3958224F810AF0885831A8521
:100AD3008219800885831A858219D2AFCEF0A3E5E7
:100AE30020F0A37808E608F0A3DEFAEFF0A3E5818F
:100AF30024FAF8E608F0A3E608F0A3E608F0A30852
:100B030008E608F0A3E608F0A315811581D0E0FEFE
:100B1300D0E0F8158115811581E8C0E0EEC0E02230
:100B23002519C582C0E0E51A34FFC583C0E0E51985
:100B3300C3958224F910AF0885831A85821980082A
:100B430085831A858219D2AFCEF0A3E520F0A3786E
:100B530008E608F0A3DEFAEFF0A3E58124FBF8E64C
:100B630008F0A3E608F0A30808E608F0A3E608F0F7
:100B7300A315811581D0E0FED0E0F815811581E839
:100B8300C0E0EEC0E022851A83851982E0A3FEE06F
:100B9300A3F5207808E0A3F608DFFAE0A3FFE0A3BB
:100BA300C0E0E0A3C0E0E0A3C0E0E0A3C0E0E0A3B6
:100BB300C0E010AF0885821985831A8008858219E1
:100BC30085831AD2AFD083D082020132851A8385FE
:100BD3001982E0A3FEE0A3F5207808E0A3F608DF7E
:100BE300FAE0A3FFE0A3C0E0E0A3C0E0E0A3C0E01D
:100BF300E0A3C0E010AF0885821985831A800885B9
:100C0300821985831AD2AFD083D08222C0D025190E
:100C1300C582C0E0E51A34FFC583C0E0E519C3957A
:100C23008224F310AF0885831A858219800885838F
:100C33001A858219D2AFC8F0A3E9F0A3EAF0A3EBB7
:100C4300F0A37908E709F0A3D8FAECF0A3EDF0A339
:100C5300EEF0A3EFF0A3D0E0F0A3D0E0F0A3D0E058
:100C6300F0A3E520F0A3E5F0F0A322851A8385190C
:100C730082E0C0E0A3E0F9A3E0FAA3E0FBA37808D5
:100C8300E0F608A3DFFAE0FCA3E0FDA3E0FEA3E0A7
:100C9300FFA3E0C0E0A3E0C0E0A3E0F5D0A3E0F54C
:100CA30020A3E0A3F5F010AF0885831A858219808D
:100CB3000885831A858219D2AFD082D083D0E0F819
:100CC300D0E03274048006740280027401C0E0F440
:100CD30004120A90D0E01209A62274048000CCC04A
:100CE300E0EDC0E0E519C39CCCAD1A50011D10AF77
:100CF300068C198D1A80068C198D1AD2AF1209B37E
:100D0300D0E0FDD0E0FC22D083D082E9C0E0E493C0
:100D1300A3C386F0C5F095F0F908E493A386F0C564
:100D2300F095F0700BE493A3C3994005E9048002A6
:100D3300A3E475F002A42582F582E5F03583F583FB
:100D4300D0E0F9E493A3C0E0E493C0E022D083D0E1
:100D530082ECC0E0EDC0E0E493A3FCE493A3FDEDDB
:100D63004C600D120D9CEC24FFFCED34FFFD80EF75
:100D7300E493A3FCE493A3FDED4C600D120DDBECB7
:100D830024FFFCED34FFFD80EFD0E0FDD0E0FCE478
:100D930093A3C0E0E493C0E022C0E0C3E4939608C9
:100DA3007401939618400FE49366700808740193D6
:100DB300661870007019A3A3C3E493960874019393
:100DC3009618A3A3400DD0E0D0E0D0E0020D8CA391
:100DD300A3A3A3A3A3D0E022C0E0C0F088F0E493D0
:100DE3006670080874019366187000A8F0A3A370D6
:100DF3000BD0F0D0E0D0E0D0E0020D8CA3A3D0F074
:030E0300D0E0221A
:100E0800851C87851DC622C0E074EF120C0FA2AFA7
:100E1800E433FEC2AF759B00906182E0A2E0500906
:100E2800E591A2E050037591FEE0A2E55009E59135
:100E3800A2E550037591DFE0A2E64003020EE2E569
:100E480091A2E64003020EE27591BF9002C2E064EF
:100E58000570081203D31203DF80031203D9751C2F
:100E680000120445E99002C3F07900120427120227
:100E7800F57A017B009002C1E0F912051190780320
:100E8800E0644270559002F8E014F0704DC2AF1261
:100E98000E9A00781FD0E0F618D0E0F6E59F5407C8
:100EA80070057509FF800375097FC4C0E0781EE6E8
:100EB800F50808E65509F509740B7808120A3DD0BB
:100EC800E02508F8906270E0A2E740F8E8C33390A4
:100ED8006272F0906270E0D2E0F0906181E0A2E38B
:100EE8005009E5E9A2E3500375E9F7A3E0A2E7504A
:100EF80009E591A2E7500375917FEEA2E092AF7FDA
:100F080004020C6EC0E0C0D0C082C083906183E050
:100F1800A2E05009E5BFA2E0500375BFFEE0A2E1E0
:100F28005009E5BFA2E1500375BFFDE0A2E25009F8
:100F3800E5BFA2E2500375BFFBE0A2E35009E5BF9D
:100F4800A2E3500375BFF7E0A2E45009E5BFA2E4AD
:100F5800500375BFEFE0A2E55009E5BFA2E55003D5
:100F680075BFDFE0A2E65009E5BFA2E6500375BFF2
:100F7800BFD083D082D0D0D0E032C0E074F2120C5F
:100F88000FE5A7A2E4500FE5A1A2E4500953A7EF8B
:100F980075A1EF120FD6E5A7A2E5500CE5A1A2E5D1
:100FA800500653A7DF75A1DFE5A7A2E15009E5A127
:100FB800A2E1500375A1FDE5A7A2E2500CE5A1A2AC
:100FC800E2500653A7FB75A1FB7F01020C6E74F873
:100FD800120B23751C019002C2E0640670077A00A8
:100FE8007B001203BBA2AFE433FED2AF9002C8E08D
:100FF800640170187A207B009002C1E0F91205950F
:101008007A207B009002C1E0F9120517906182E016
:10101800D2E6F09002F5E0602185C61D80169002A8
:10102800C7E064017008E5C654F84405F5C653BE28
:10103800FC120E087401651C60E4EEA2E092AF7F1A
:1010480001020BCF74E9120B2374FA120A5FEAFE4D
:10105800EBFF8C088D099002C2E024F7C394055079
:101068000675100102117712038B8A0A8B0BEA4569
:101078000B70030211741203EB8A0C8B0D1203EB35
:10108800EA650C7003EB650D60ECEEFCEFFD85196D
:1010980082851A83AA82AB831203F1850A82850BA3
:1010A80083A3A3780C120970908EAB780C12095D9B
:1010B800851982851A837814120970908EAB78147A
:1010C80012095D780C7914120796501F780C791460
:1010D800120935908E7F780C1207B64047850C10A0
:1010E800850D11850E12850F138045908E7F85140E
:1010F800108515118516128517137810790C1209A9
:101108003578101207B6501C75100075110075124D
:1011180000751301781079141209357810790C12BA
:1011280008FC800C7510017511007512007513000C
:10113800740978101208DD908EB3780C1209707853
:1011480010790C1208559002C2E06408600AE06445
:10115800066005E064057020908EB778101207B617
:101168005016908E87781012090F800C7510007534
:10117800110075120075130085088285098378109F
:1011880012097F7406120A757F10020BCF74F712CA
:101198000B231204039002F3E0640170109062457F
:1011A800E4F0A3F053F4F343FE0C5390F31203A9B5
:1011B800E5C654804449F5C6E59E547F644970F8F5
:1011C800906185740FF09002F1E0F47002A3E06082
:1011D8002C7508017509009002F1E07808120A4C94
:1011E800E508F4FAA3E0600814600A14600C800DA6
:1011F800EA52808008EA52908003EA52A079007F80
:1012080002020BCF74F7120B23E9FEEAFF74016E9A
:10121800700C7A807B009002C1E0F91205119014DD
:1012280000E493F46008E493F91202D7800953C6E6
:1012380080E59E547F70FA1203AF9002F3E06401D8
:10124800700312030D9002F1E0F47002A3E0602A2B
:101258007508017509009002F1E07808120A4CAA95
:1012680008A3E0600814600A14600C800DEA42804C
:101278008008EA42908003EA42A012038B8A088B16
:1012880009A808A909E8496017E5E170FCE82414F1
:10129800F582E93400F583E0F874FF68600288E1BC
:1012A80074016F700A7A019002C1E0F912055F02B9
:1012B800120774F1120B238A088B098C0A8D0B9084
:1012C8008EAB780812095D740F120AAB780C1209FC
:1012D80070908EAB780C12095D7808790C1207961D
:1012E800908E7F50107808790C120935780812070B
:1012F800B64014800E780C7908120935780C12075C
:10130800B650047901800279007F08020BCF74ED92
:10131800120B238A088B098C0A8D0B908EAB7808E8
:1013280012095D7413120AAB780C120970908EAB17
:10133800780C12095D780C79081207964011780824
:10134800790C120935AA08AB09AC0AAD0B802275D5
:1013580010007511007512007513017810790C12C0
:101368000935781079081208FCAA10AB11AC12AD37
:10137800137F0C020BCFC082C083E9906000F0D0CD
:1013880083D08222C2AF02000022C0E074F2120CA5
:101398000FA2AFE433FED2AFE589A2E150031206F3
:1013A80037758900C2C5751B00EEA2E092AF7F01B8
:1013B800020C6EC0E074F2120C0FA2AFE433FED23E
:1013C800AFE58BA2E05003120637758B00C2E880A8
:1013D800D5C0E0C0D0E8C0E0E9C0E0E5A8D2AFC21F
:1013E800C7751B00A2E7A2E792AFD0E0F9D0E0F8FA
:1013F800D0D0D0E032020132FFFFFFFFFFFFFFFF36
:1014080074F4120AB7EAFEEBFF1214F560057911BD
:101418000214E5900284E0540A700579120214E57A
:101428007A047B0012054790029DEAF0A3EBF012C4
:1014380014F570030214E37508047509007808129E
:101448000CCAEEFCEFFD1214EA1204C97402120A67
:101458007512024DE9600F7A0C7B001202058A08AA
:101468008B097A0D80268E828F83A3E06402700F29
:101478007A127B001202058A088B097A13800D7A8A
:10148800107B001202058A088B097A117B00120270
:10149800058A0A8B0BAC0AAD0B8E828F83A3A3A39C
:1014A800E06004780180027800900285E070047999
:1014B8000080027901E8F50A780A120CCEE9F50AEB
:1014C800780A120CCEAA08AB098E828F83A3A3E0F8
:1014D800F912026B7402120A75800279137F0402F2
:1014E8000B8990029DE0FAA3E0FB22E9FE90029DA1
:1014F800E0F8A3E0F9E8492274F7120AB71214F3E6
:101508007004791280211215F8E06E600479038066
:10151800167A017B0090029FE0F912059579301246
:1015280001ED79001201F37F01020B8974F7120AA9
:10153800B789087A01900283E0F91201E1900284E8
:10154800E0540A605AE508900283F07A597B041245
:1015580002599002811214F87041900283E06049A8
:1015680075F00CA4FEAFF0FAEFFB1205479002816C
:10157800EAF0A3EBF09002811214F8601EEEFCEF83
:10158800FD79001204D57B008005EB1217820B90C1
:101598000283E0F8EBC39840F1800E7913800C9039
:1015A8000283E4F0FAFB120259790002152F74F64F
:1015B800120AB779018A088B097808120D0A0B20DC
:1015C80001EF15DE15CF158C828D83A3A3A3A3A3EA
:1015D8001215F5E060128C828D83A3A3A3A3A31236
:1015E8001C381201D58001197F02020B89E0F8A38B
:1015F800E0F58388822274F4120AB71214F3605556
:10160800EE703A1215F8A3E0640270047A038002BF
:101618007A027B001202058A088B09E4F50AF50BA9
:101628007808120CC67A017B0090029FE0F9120537
:10163800897404120A7579011201F3E9FEEE60114A
:101648007A017B0090029FE0F9120595EEF91201EC
:10165800ED7901800279000214E574F4120AB7EA00
:101668004B70111214F5607C79001201ED790012AB
:1016780001F38070EA2403F508EB3400F5098508C6
:1016880082F583E0605E8A828B83A3A3A3A3E0FE36
:10169800A3E0FFEE4F604D7A247B00120205EAF5C5
:1016A8000B750A008030EE2428F582EF3400F583AC
:1016B800E0C3950BA2D265D0334011EEFAEFFB12CE
:1016C80001E7E96007EEFAEFFB1201F9EE2429FEC3
:1016D800EF3400FF050A850882850983E0F8E50AEA
:1016E800C39840C20214E574F5120AB789088A093A
:1016F8009002811214F8607D750A00802FE50A7542
:10170800F00CA4FEAFF0121789121AB0600A120585
:101718004D121789E4F0A3F01217A3121AB0600A49
:1017280012054D1217A3E4F0A3F0050AE50AC395C4
:101738000840CAE509900281600F1214ED12054DA8
:10174800900281E4F0A3F0802C1214F86027E508D9
:1017580075F00CA4FCADF079009002811214ED1222
:1017680004D5750A008007E50A121782050AE50AFA
:10177800C3950840F27F03020B89121BFF74FFF028
:101788002212178D22900281E02EF8A3E03F888272
:10179800F583A3A3A3A3A3A3A3A32212178DA3A393
:1017A8002274E8120AB774FF120A5FEAFEEBFF75AB
:1017B80008007A007B001214F56075EE2408F50A1B
:1017C800EF3400F50BEE2409F512EF3400F5138E13
:1017D800828F83E0640160347812120CCA850A8211
:1017E800850B83E0FC7402120AABAA82AB837901F1
:1017F8001202357402120A75EA4B60078A828B83DB
:10180800E0F5088E828F83E06404603B90029D12AD
:1018180015F5A3E0F8740368602DE87004E5086026
:1018280026EA4B600B740168701274035508701730
:1018380079007401120A757F10020B8974026870AE
:10184800EFE508A2E050E98E828F83A385820E859A
:10185800830FEE2402F50CEF3400F50DAA0CFBE023
:10186800F912021DE9F8850E82850F83F0850C16A2
:10187800850D1788119002811214F8606A7510009E
:1018880080020510900283E0F8E510C3985058E5EF
:101898001075F00CA4F508E5F0F509900281E02533
:1018A80008FAA3E03509FB8A828B83E0F460D3A3AE
:1018B800E0651170CD7514067515007814120CCA00
:1018C800AC16AD17EA2402FAEB3400FB1204CF740D
:1018D80002120A75E960AB900281E02508F508A3B9
:1018E800E03509F50980067508007509008E828FB4
:1018F80083E0FAE508450970030219B6E508240AE9
:10190800F50EE5093400F50FE5082408F50CE5099E
:101918003400F50D74046A600C850C82850D83E033
:10192800FAA3E0800E850E82850F83E0F8A3E0F924
:10193800E8FAE9FBEA4B7003021A23850A82850B51
:1019480083E0F5148A828B83E06514702575150091
:101958007814120CCAAC12AD138A828B83A3AA82A4
:10196800AB831204CF7402120A75E9640170030292
:1019780018388E828F83E064046019850C82850D87
:1019880083121AB07003021A2312054D850C828542
:101998000D838014850E82850F83121AB0607C1225
:1019A800054D850E82850F83E4F0A3F0806D7404E5
:1019B8006A70030218389002811214F8602B7C00B8
:1019C80080010C900283E0F8ECC398501CEC75F091
:1019D8000CA4F8A9F0900281E028F8A3E039F9886E
:1019E800828983E0F470DB80067582007583008548
:1019F8008208858309E50845097003021838EAF06A
:101A0800850E82850F83121C1F120CCAAC0CAD0DFB
:101A1800121C141204C97402120A75850A82850BF5
:101A280083E02401FAE43400FB120547EA4B605EC8
:101A38008E828F83E064046014850882850983A3FD
:101A4800A3A3A3A3A3A3A3EAF0A3EB8018EAF8EB4C
:101A5800F9850882850983A3A3A3A3A3A3A3A3A3AA
:101A6800A3E8F0A3E9121AA78A828B83121AA7F5B2
:101A7800087509007808120CCAAC12AD138A828B5B
:101A880083A3AA82AB831204C97402120A75850A59
:101A980082850B83E07003021838790102183AF046
:101AA800850A82850B83E022E0FAA3E0FBEA4B2259
:101AB80074F0120AB7890B750A001214F570030244
:101AC8001BFA9002811214F87003021BFAE50B70DE
:101AD8001D750C00800DE50C121BFFE0F46002057B
:101AE8000A050C900283E0F8E50CC39840E8850AE3
:101AF8000875090074037808120A4CE5082406FAE8
:101B0800E5093400FB1204E18A088B09AE08AF0925
:101B1800EE4F70157A067B001204E18A088B09AE35
:101B280008AF09750A00750B13EE4F7003021BE32B
:101B38008E828F8374D0F0A3E50B121D807401127E
:101B48001D80A3E50AF0EE2404F582EF3400F58346
:101B5800E50A607DEE2406F508EF3400F509E5088E
:101B6800F0A3E509F0750C00900283E0F8E50CC3DA
:101B7800985062E50A605EE50C75F00CA4F8A9F0CF
:101B8800900281E028F8A3E039F9E8FAE9FB8A82B3
:101B98008B83E0F874FF686034E8850882850983E0
:101BA800F08A828B83A3121C1F120CCAEA2402FC3F
:101BB800EB3400FD121C141204C97402120A75E5F4
:101BC800082408F508E5093400F509150A050C800C
:101BD80097E4F0A3F0121C311204ED7A009002830E
:101BE800E0F91201E11214EA12054D90029DE4F0A9
:101BF800A3F07F08020B8975F00CA4F8A9F09002F5
:101C080081E028FAA3E0398A82F58322E5082402D4
:101C1800FAE5093400FB22E0850882850983A3F0F0
:101C2800750E06750F00780E22EEFAEFFB90029DF6
:101C3800E0F8A3E0F5838882E0F92274F6120AB787
:101C4800E9FE7A237B001202058B09EA4509600444
:101C58007A0180027A00EEF91202710215F074F22C
:101C6800120AB78A088B091214F57003021D7BEA61
:101C78002408F50AEB3400F50B850A82F583E02485
:101C88000FFAE43400FB1204E18A0C8B0DAE0CAFA2
:101C98000DEE4F7003021D7B8E828F8374D0F0A3EC
:101CA800E4121D80740DF0850882850983121D8851
:101CB800F0E5082428F582E5093400F583E0C0E062
:101CC800EE240BF582EF3400F583D0E0F08508822E
:101CD800850983A3121D88A3F0750C06750D00787D
:101CE8000C120CCAE5082402FCE5093400FDEE24B8
:101CF80005FAEF3400FB1204C97402120A75850A4A
:101D080082850B83E0F50AEE240CF8EF3400F9E83D
:101D1800FCE9FD8C828D83E50AF0EE240D08EF3492
:101D280000F9E8FAE9FBE50A603BEE240FF8EF3426
:101D380000F98A828B83E8F0A3E9F08C828D83E036
:101D4800F50A750B00780A120CCAE5082409FCE5A7
:101D5800093400FD8A828B831214ED1204C97402BF
:101D6800120A7580088A828B83E4F0A3F0121C3172
:101D78001204ED7F06020B89F08E828F83A3A322C3
:101D8800E08E828F83A3A3A322C082C08312077B25
:101D98000221A474F7120AB77409120AAB12232D90
:101DA800801C8C828D83E08A828B83F08C828D8369
:101DB800A3AC82AD838A828B83A3AA82AB83E8FE1D
:101DC800E9FFEE24FF18EF34FFF9EE4F70D402223A
:101DD800E9EEFAEFFB7F06020B8974F5120AB7ECFD
:101DE800F8EDF9740B120AABE0F508A3E0F509ACBD
:101DF80008AD09EC24FFF508ED34FFF509EC4D605A
:101E08002CEAFCEBFD8C828D83A3AA82AB83E8FECF
:101E1800E9FF8E828F83A3A882A9838C828D83E0B9
:101E2800FC8E828F83E06C60C67900800279017F26
:101E380003020B8974F6120AB7E9FE8C088D09783B
:101E480008120CCA8E08AC087D00120769740212C9
:101E58000A750222EE74E8120AB774DF120A5FE903
:101E6800851982851A83F08A108B118C128D137450
:101E780003120AABAC82AD8375838E7582E7740A50
:101E88001209B375838E7582E6740A1209B37583D5
:101E98008E7582E5740A1209B37439120AAB1223DB
:101EA8002D7439120AABE8F0A3E9F07439120AABC1
:101EB800122515E4F004120AAB74E3F0A3748EF053
:101EC800851982851A83E0640A600302203F8A0824
:101ED8008B0985120A85130B908E9F780C12097056
:101EE8007808790C120855850C08850D098A0C8B21
:101EF8000D85120E85130F908E9F78141209707835
:101F08000C7914120855908E9F7814120970780C69
:101F18007914120855AE14AF15908EA3780C1209D7
:101F2800707810790C12085585100A85110BE50A8E
:101F3800450B6012790A7417120AABAC82AD83AAFA
:101F48000AAB0B1205B3EE4F6012790A740D120A30
:101F5800ABAC82AD83EEFAEFFB1205B3E508450999
:101F68006012790A7403120AABAC82AD83AA08AB7B
:101F7800091205B3E50A450B60407417120AABACA9
:101F880082AD837439120AAB1222AD120775750C33
:101F98000080137401120AAB12212D120AAB12220F
:101FA800AD12076F050C850C0E740D120AABAA82D0
:101FB800AB8312077B12211840D9740D120AABACFF
:101FC80082AD837439120AAB1222AD12076FE50A8B
:101FD800450B7004EE4F602C750C008013740112D1
:101FE8000AAB12212D120AAB1222AD12076F050C93
:101FF800850C0E7403120AABAA82AB8312077B12FC
:10200800211840D97403120AABAC82AD837439121B
:102018000AAB1222AD12076FE50A450B7007EE4FA7
:1020280070030220F47439120AAB1222AD74211223
:102038000A757F10020B89E0641060030221118A7F
:10204800088B09741078101208C4AE10AF11EE4F47
:1020580060127910740D120AABAC82AD83EEFAEF00
:10206800FB1205B3E5084509601279107403120ADA
:10207800ABAC82AD83AA08AB091205B3EE4F605131
:10208800740D120AABAC82AD837439120AAB1222FA
:10209800AD120775750C0080137401120AAB12217A
:1020A8002D120AAB1222AD12076F050C850C0A74AB
:1020B80003120AABAA82AB8312077B8A0E8B0F74BA
:1020C80004C3950EF8E4950FF9C3E50A98E499401E
:1020D800C87403120AABAC82AD837439120AAB120E
:1020E80022AD12076FEE4F600302202DE508450967
:1020F800600302202D7401120AAB12212D120AABC3
:102108001222AD12077502202D7A007B00022035BD
:102118008A108B117404C39510F8E49511F9C3E57E
:102128000E98E49922E0FCA3E0FD74392274F612BB
:102138000AB7EAFEEBFFEE4F6039EE2405FAEF34FA
:1021480000FB1205478A088B09A808A909E8496015
:102158002288828983E4F0A3F088828983A3A3126A
:1021680022F3A3A3A3A374FFF0E82405FAE934003B
:10217800FB80047A007B000222EEC082C083EA4B17
:1021880070047905801612221460047904800DEA1F
:1021980024FBFAEB34FFFB12054D7900D083D08283
:1021A80002013274F7120AB77C000222E674F712B1
:1021B8000AB7E9FEECFFEA4B6021908EE9E0F8EE01
:1021C800C39840071204E77903803E1223A712251B
:1021D80036700512221460071204E77905802AEE8A
:1021E800F074016F700DEAFCEBFD7A427B03120577
:1021F80005800BEAFCEBFD7A427B031204FF7A00B0
:102208007B80EEF912051179000222E9EA24FFF534
:1022180082EB34FFF583E0F42274F2120AB7890ADC
:10222800750C00750D007E007F00A2AFE433F50B3E
:10223800C2AF9003428015EE4F700685080C8509E1
:102248000DE50824FBF582E5091223ADE0F508A3A6
:10225800E0F509E50845096023E50824FFF582E56E
:10226800091223ADE0650A70CEEE4F7006AE08AFD6
:102278000980CE7A007B80120511800B7A007B8062
:10228800120517EE4F6015780C120CCAEEFCEFFD24
:102298007A427B0312050B7402120A75E50BA2E061
:1022A80092AF021DD9E0FAA3E0FB2274F7120AB735
:1022B800A2AFE433FEC2AFEC24FBF582ED1223ADEE
:1022C800E4F0A3F080031223B212253270F88A8258
:1022D8008B83ECF0A3EDF0EEA2E092AF8003120442
:1022E800F37F01020B897F02020B89EEF0A3EFF066
:1022F800888289832274F7120AB7E5A8FEC2AF8ADA
:10230800828B8312232DEC24FBF582ED1223ADE89A
:10231800F0A3E9F08A828B83ECF0A3EDF0EEA2E75C
:10232800A2E70222E2E0F8A3E0F92274F3120AB766
:10233800EAFEEBFF740D120AAB12232DE8FAE9FB53
:10234800A2AFE433F50CC2AFEC24FBF8ED34FFF98F
:10235800880889098882F58312232D8E828F83E06D
:10236800F50AA3E0F50BEC650A7003ED650B700642
:102378008E828F8380031223A7E8F0A3E9F08508F3
:1023880082850983E4F0A3F0EC24FFF582ED1223A3
:10239800AD74FFF0E50CA2E092AF7F05020B89EA6D
:1023A80024FBF582EB34FFF58322E824FBF8E934BB
:1023B800FFF9E8FAE9FB2274F7120AB7E9FD908EF3
:1023C800E9E0F8EDC398502BE5A8FEC2AFEDC333A2
:1023D800F8E433F9900356E028FCA3E0398C82F541
:1023E80083E04AF0A3E04BF0EEA2E7A2E792AF79D0
:1023F80000800279030222E974F7120AB7E9FE9015
:102408008EE9E0F8EEC3985021E5A8FFC2AFEAF4E0
:10241800FCEBF4FDEE12251EE05CF0A3E05DF0EFAE
:10242800A2E7A2E792AF7900800279030222E9E9E4
:10243800F874FF687006C2AF79008002790702015C
:1024480032C082C08312053B900342E4F0A3F0122D
:10245800057112055312056B12054179000221A47A
:10246800C082C08312052F80FB74F4120AB7750866
:1024780000120535120601E50812251E12253670D0
:102488000D0508908EE9E0F8E508C39840E9908EBC
:10249800E9E0F8E508C398506CE5A8FCC2AFE50888
:1024A800C333FEE433FF900356E02EF8A3E03FF970
:1024B800888289831222AD88828983E4F0A3F0ECB4
:1024C800A2E7A2E792AFE5089004C7F0F9743E2EA0
:1024D800F582748E3FF583122515120AB59004C74C
:1024E80074FFF0E5A8F9C2AF900356E02EF8A3E018
:1024F8003F8882F583E04AF0A3E04BF0E9A2E7A227
:10250800E792AF80031205657F04020B89E0F8A308
:10251800E0F583888222C333F8E433F9900356E068
:1025280028FAA3E0398A82F583228A828B83E0F82D
:10253800A3E0F9E8492274F4120AB7E99002C1F05D
:102548001203FD907800E0C4540F5407640370042C
:10255800793F8002797F7508067509007808120CA2
:10256800CA7CAF7D027AEA7B071206077402120A58
:10257800759002AFE0F47049A3E0F47044A3E0F46E
:10258800703FA3E0F4703AA3E0F47035A3E0F47070
:102598003090780EE09002AFF090780FE09002B0A3
:1025A800F0907810E09002B1F0907811E09002B2CB
:1025B800F0907812E09002B3F0907813E09002B4B3
:1025C800F09002B51226CE122B7E9002D37406F03C
:1025D800A3740D1228807440F0A37401F09002DDFA
:1025E8001226CE9002DCE4F09002E3041228801256
:1025F80026C51226C512288004F0A3122880742547
:10260800122880F09002F174FFF0A3E4F09002F336
:10261800F09002F504F09002F67490F0A37401F0C3
:102628001203071202B91203A379017AF87B021286
:1026380003319002F8E075F01484E5F004F0120319
:10264800377A009002C1E0F912055F907803E064E0
:102658004270559002F8E014F0704DC2AF1226682F
:1026680000781FD0E0F618D0E0F6E59F5407700513
:102678007509FF800375097FC4C0E0781EE6F50878
:1026880008E65509F509740B7808120A3DD0E025CB
:1026980008F8906270E0A2E740F8E8C333906272ED
:1026A800F0906270E0D2E0F09002D8E4F0A3F07A03
:1026B80080FB9002C1E0F912051102287BF0A37497
:1026C80080F0A374022274FF122886F0A3F022740B
:1026D800F4120AB7EAFEEBFFEEA2E0503F9002C305
:1026E800E0C39480E0500FC333F8E433F974AD28A5
:1026F800F5827404800EF4C333F8E433F974BB280C
:10270800F582740439F583122B5C120AB57A0090AD
:1027180002C1E0F912055FEE640180335480603332
:102728009002F6122B47F9E8496021790012055901
:102738009002F6122B647808120CC67A007B01907E
:1027480002C1E0F91205897404120A75EE6480FA70
:10275800EF802DEF5401600C7901120559EEFAEF64
:102768006401801CEF5402600AC2AF75C9AB75C919
:102778005B80FEEF5404600B12138CEEFAEF6404D6
:10278800FB80179002C8E06401700BEE54206006CD
:10279800EE6420FA80047A007B0002287BC082C0A5
:1027A80083C2AF1203D9E5E170FC75E1011202DDC5
:1027B80075E1F11204151202D1790712048D79011D
:1027C800120493790212042D12045112047579002F
:1027D8001204877901120487908E8B12098E1204D5
:1027E800219002E4E4F01203671203257900120431
:1027F80099906012E4F0A3F0906063F0751C00906B
:1028080002C2F09002C4F0A3F09002C7F09002C890
:1028180004F09002D27403F09002F4E4F0D2AFF91D
:10282800022874C082C0839002AF12286BF0900215
:10283800B012285EF09002B112285EA3F09002B2A6
:1028480012285EA3A3F09002B3122863F09002B49A
:10285800122863A3801312286BA32212286BA3A348
:10286800A3A322E08A828B8322F07900D083D082CE
:102878000201327F04020B89F0A3E4F0A322F0A343
:10288800F0A3F0A3F0A3227F01020B89E0FAA3E0F2
:10289800FB2274F7120AB7E9FE600574016E703204
:1028A8007409120AABE0FF600574016F7024122BE3
:1028B8004C501FEC24FCF8ED122B515015C3EA9C28
:1028C800EB9D400E740A120AABE0F8600A740168C6
:1028D8006005791202297D9002E4E06401700579AF
:1028E8000C02297DEEA3F0E89002EAF0EF9002DCFA
:1028F800702FE4F09002AFE09002DDF09002B0E0BB
:102908009002DEF09002B1E09002DFF09002B2E0B7
:102918009002E0F09002B3E09002E1F09002B480FF
:102928002E7401F09002B5E09002DDF09002B6E05E
:102938009002DEF09002B7E09002DFF09002B8E07B
:102948009002E0F09002B9E09002E1F09002BAE063
:102958009002E2F09002E6EAF0A3EBF0A3ECF0A319
:10296800EDF0E8700479008007740168700579015A
:1029780012045D790002288F74F0120AB7E9FEEAA2
:10298800FF9002C2E064097003022AA8E0640A709A
:1029980003022AA8E0640B7003022AA8E0640C7002
:1029A80003022AA8E0640D7003022AA89002E5E059
:1029B800F860087401686003022B3F9002DCE0F8BD
:1029C80060087401686003022B3F9002E6122894A5
:1029D800122B4C4003022B3FA3122B47F9E824FC8F
:1029E800FCE934FFFDC3EC94FDED943F4003022B5A
:1029F8003FC3EA98EB995003022B3FEF600874013C
:102A08006F6003022B3FEE7003022AA214600302D8
:102A18002B3F9002E4E064017003022AA8790212B5
:102A2800037F9002DAEAF0A3EBF09002E47401F07D
:102A38009002E3F0EF9002EBF09002C2E0705612C1
:102A480003191203E58A0C8B0D8C0E8D0F908EA73F
:102A5800780C12090F908EAB780C12095D9002DA8F
:102A6800122B5CA3A3780C12097F122B44C82406EE
:102A7800122B76E4F0A3F09002E8122B64780C791C
:102A8800081208FC122B44C8240E122B76780C125C
:102A9800097F12036D7900022B719002E4E0700443
:102AA800792180F3A2AFE433F508C2AF7ADA7B026A
:102AB8001203859002E4E4F012039DE970461203C4
:102AC800D9906182E0C2E6F0E5E170FC75E101753C
:102AD80091BF790112049375E1F19002C8E0640195
:102AE80070187A207B009002C1E0F91205957A20CF
:102AF8007B009002C1E0F91205177A009002C1E04C
:102B0800F912055FE508A2E092AF9002EAE0F874D6
:102B180001687006120475022A9DA3E0640160032F
:102B2800022A9DE86003022A9D1204511204757955
:102B380001120481022A9D7912022A9F9002DAE08A
:102B4800F8A3E022EA24FCF8EB34FFF9C3E894FD8B
:102B5800E9943F22122B47F583888222E0F508A3E7
:102B6800E0F509E4F50AF50B227F08020B89F582E6
:102B7800E83400F583229002AFE09002BBF09002A7
:102B8800B0E09002BCF09002B1E09002BDF090027B
:102B9800B2E09002BEF09002B3E09002BFF0900263
:102BA800B4E09002C0F022C082C083900324E4F015
:102BB80090032374FFF0900320F090031FE4F0903B
:102BC800031EF0900321F0A3F00231D474EC120A32
:102BD800B7900321E0F50CA3E0F50DE50C450D7069
:102BE800061202F5022DEF850C82850D83E0F9149B
:102BF800600A14600724FE6003022DEF1203798A2D
:102C0800088B09AE08AF09EE240EF50AEF3400F57B
:102C18000B122F6EFAA80CA90DEE687002EF69600E
:102C280003022D3C74026A6003022DE8EE2415F5B8
:102C380010EF3400F511851082F583E06039122F0A
:102C48007E7003A3E069602F1203E58A0C8B0D8C5C
:102C58000E8D0F908E8F780C12090F780C120CC6FF
:102C680085088285098312098E1212BA7404120A21
:102C780075E96003022DE81203E58A0C8B0D8C0EB2
:102C88008D0F908E83780C12090F908EAB780C12F2
:102C9800095D850882850983E50CF0A3E50DF0A39D
:102CA800E50EF0A3E50FF0850882850983780C12FC
:102CB8000970851082851183E0640170269002E80E
:102CC800E0F508A3E0850810F511E4F512F513788E
:102CD8000C79101208FC850A82850B83780C12097E
:102CE8007F804E850A82850B83120CDDAA0CAB0D02
:102CF800AC0EAD0F1212BA7404120A75E9640170B1
:102D080030850882850983C082C083122DF4D08360
:102D1800D082780C12090F850A82850B83780C12F1
:102D2800097F9002EEE06427700474258002E004B5
:102D3800F0022DE874026A6003022DEF1203199065
:102D480002EBE0640170169002EAE070107901125B
:102D5800047B1204511204757900120481122F7E2B
:102D68007003A3E069602C1203E58A0C8B0D8C0EAE
:102D78008D0F908E8F780C12090F780C120CC68567
:102D8800088285098312098E1212BA7404120A7510
:102D9800E970471203E58A0C8B0D8C0E8D0F908E0F
:102DA80083780C12090F908EAB780C12095D850898
:102DB80082850983780C12097F850882850983C07A
:102DC80082C083122DF4D083D082780C12090F852B
:102DD8000A82850B83780C12097F9003207402F015
:102DE800EEFAEFFB1203737F0C020B899002E8E006
:102DF800F508A3E085080CF50DE4F50EF50F22742F
:102E0800F0120AB7EAFEEBFF8E828F83A3A3A3A377
:102E1800A3A3E0FAA3E0FB1203CDEE2402F8EF34FB
:102E280000F9880889098882F58312098E1203C17E
:102E380085088285098312098E1203B5EE240E12C5
:102E48002F5A12098E1203C78E828F83E064407056
:102E58001CEE2412F8EF3400F988828983E0906030
:102E680064F088828983A3E090606580069060643E
:102E7800E4F0A3F0900321EEF0A3EFF0EE24161295
:102E88002F5AE0F8A3E0F5838882120AB5906054BF
:102E9800E4122F62A3122F62906182E0C2E6F075FD
:102EA80091BFEE2415F8EF3400F9880A890B88825F
:102EB800F583E064017003120403E5E170FCEE247D
:102EC80014122F5AE0F874FF68600288E1850A82BC
:102ED800850B837401F09002C8E06401706F1203DF
:102EE800E58A0C8B0D8C0E8D0F780C120CC685089C
:102EF8008285098312098E1213167404120A758AC0
:102F0800088B098C0A8D0B908E9B780C12097078AF
:102F180008790C1207D5740378081208C4E5082448
:102F2800F4F508E5093401F5099002F5E0600312AB
:102F38000535E4F50AF50B7808120CC67A207B00F3
:102F48009002C1E0F91205897404120A757F08021B
:102F58000B89F582EF3400F58322F0A3F0A3F0A3E8
:102F6800F0A3F0A3F022EE2402F508EF3400F509EF
:102F78008E828F83E0229002E6E0F8A3E0F9A3E0D6
:102F8800682274EE120AB7890874FF6508703990D0
:102F9800031FE0540770030231017904120391E919
:102FA800640170047904801A7901120391E96401BB
:102FB80070047901800C7902120391E964017008A8
:102FC8007902120397023105A9081203978A108B18
:102FD80011A908120391E9640170057509018003BC
:102FE800750900E5102402F50AE5113400F50BE532
:102FF8000814600D14607A24FE70030230990231BF
:10300800017902120391E964017049790212039768
:103018008A0C8B0DAE0CAF0DE509A2E0502F8E8205
:103028008F83A3A3780C120970908E7B780C1209F9
:103038000F780C120CC6850A82850B8312098E1232
:1030480012BA7404120A75E970030230FBEEFAEF43
:10305800FB0231057904120391E96401601DE50959
:10306800A2E05006AA10AB1180047A007B0002315E
:10307800057904120391E9640170047904802C79BC
:1030880001120391E964016012E509A2E0506A8027
:10309800627901120391E9640170047901800C7965
:1030A80002120391E96401704479021203978A0CB1
:1030B8008B0DAE0CAF0DE509A2E050918E828F8387
:1030C800A3A3780C120970908E7B780C12090F78E4
:1030D8000C120CC6850A82850B8312098E1212BA4D
:1030E8007404120A75E960030230558006E509A2E6
:1030F800E05006AA10AB1180047A007B007F0A0218
:103108000B8974F7120AB7E9FE900324E0705B7428
:1031180001F0EE900323F01203E590032512099ABB
:10312800900329E4F0A3F090033174FFF0A3F0A317
:10313800F0A3F09003377401F0A3F0A3E4F0A3F038
:1031480090031FE04EF090031EE004F06401600A53
:1031580074806E600574406E700A9003217423F0C9
:10316800A37403F07A237B0380047A007B007F0139
:10317800020B89C082C0838A828B83E0F8A3E0F9BE
:103188008A828B83E4F0A3F088828983A3F0888203
:103198008983E0F4F890031FE058F090031EE014D0
:1031A800F0700B900321E4F0A3F09002C2F0801CB1
:1031B800C082C08390031EE0600A900321E0FAA356
:1031C800E0FB80047A007B008002E0F9D083D082A3
:1031D800020132C082C083E9F8900323E0687005D9
:1031E800A3E0F98002790080E3C082C083900323C2
:1031F800E069700CA3E0640170067A237B03800405
:103208007A007B0080C6C082C08390031E80BBC04A
:1032180082C08312040912040F1204151204030257
:10322800378EC082C0839061B1E0C2E0F0E0D2E0A6
:10323800F0906188E0640470F802378EC082C08321
:103248009061B1E0C2E0F09061F3E4F09061F2F0D7
:10325800F8F91232A49061F01232DF94FEE9940D6D
:1032680040F002378EC082C0839061F3E4F0906131
:10327800F2F0F8F99061F0E0FA1232A46A700A12DA
:1032880032E494FEE9940D40EB74FE687003740D0B
:1032980069700479008002790102378E740028F57C
:1032A80082748039F583E022C082C0839061C0E0D7
:1032B800FAE4F0F8F9E82400F582E93460F583E4EB
:1032C8001232DF9480E9940140EBEA9061C0F090FB
:1032D800618A7401023789F01232E422E824010875
:1032E800E93400F9C3E822C082C0838A828B83E074
:1032F8009060161236BAA3E090601712332D9060D2
:103308001812333690601912333B90601A1233400A
:1033180090601BF0E99060157005E0C2E08003E062
:10332800D2E002378DF08A828B83A3A3E022123386
:103338004BE022123346E022123346A3E022123336
:103348004BA322F08A828B83A3A3A32274F0120AD0
:10335800B7EA906005F0EBA3F0ECA3F07F08020B4E
:1033680089C082C0837401699060037005E0D2E06F
:103378008003E0C2E002378DC082C083906003E022
:1033880054F94902378DC082C083EA90600AF0EB95
:10339800540102378CC082C083E990600C7005E04C
:1033A800C2E08003E0D2E002378DC082C083E9909A
:1033B800600C7005E0C2E18003E0D2E102378DC005
:1033C80082C083906061E002340474F0120AB790FE
:1033D80061947420F0EAA3123719023362C082C0E4
:1033E8008390033BE4F0906022F0A3F0A37830F0E0
:1033F800A3D8FC02378EF07F02020B89F902378EC0
:1034080074F4120AB7EAFEEBFF89088C0990033BB3
:10341800E0640870047903807C1204ABE9F47068F6
:103428007900750A01750B00E9780A120A4CAC0A92
:10343800906022E05C7055E04C1234A2FA74603B54
:10344800FB78068E828F831236E58E828F83A3AE39
:1034580082AF838A828B83A3AA82AB8318E870E346
:10346800E508700AECF4F8906023E0588005906055
:1034780023E04CF090033BE004F07401650970050B
:10348800120463800312046F7900800909E9C39468
:1034980008408F79017F04020B89F0E975F006A4D2
:1034A800FAABF074242A22C082C083E990601470B9
:1034B80005E0C2E28003E0D2E202378D74F6120A18
:1034C800B7750801750900E97808120A4C90600977
:1034D800E045080233FE74F7120AB71204AB74FF12
:1034E8006960071204637900800279057F01020B85
:1034F8008974F6120AB7750801750900E978081287
:103508000A4CE508F4F8906009E0580233FEC082DE
:10351800C083906009E402378D74F2120AB774FA16
:10352800120A5F7A007B60E970027A33906009E0E2
:10353800F8906022E0F50BA3E0F99061C07401F007
:10354800E88A828B83F0A3E50BF0A3E9F0A3AA82B3
:10355800AB839061C0E4F0F50A750C01750D00E5C8
:103568000A780C120A4CE50C550B6056750900E5F3
:103578000A75F006A4F8A9F0850982AC827424289B
:10358800FE746039FFEE2CF582EF1236AFC0E01200
:10359800368BD0E01236C040DF9061C07401F07500
:1035A800090012369DC0E0E82CFCE93400FDEA2C45
:1035B800F582EB3DF583D0E01236C040E59061C05E
:1035C800E4F0050AE50AC39408408E7406120A75E9
:1035D8007F06020B8974F2120AB774FA120A5F7A2C
:1035E800007B60E970027A331236B5E0F8A3E0F5A3
:1035F8000BA3E0F9A3AA82AB839061C0E4F0E89042
:103608006009F0E50B906022F0E9A3F0750A0075F7
:103618000C01750D00E50A780C120A4CE50C550BE7
:1036280060559061C07401F0750900E50A75F006EF
:10363800A4F8A9F0850982AC82EA28FEEB39FFEEEE
:103648002CF582EF1236AFC0E012368BD0E012367E
:10365800C040E19061C0E4F0F50912369DC0E0E891
:103668002CFCE93400FD74242CF58274603DF5834C
:10367800D0E01236C040E3050AE50AC39408408F3B
:103688000235D3851982851A83E5822CF582E58374
:103698003400F58322850982AC82851982851A83D4
:1036A800E5822CF582E5833400F583E0229061C041
:1036B8007401F08A828B8322F00509E509C3940618
:1036C80022C082C0837A007B60E970027A331236A6
:1036D800B5E4F0A3F0A3F09061C002378D1236E98B
:1036E80022123795F022C082C083E9906002023727
:1036F8008DC082C083E99060027005E0D2E3800348
:10370800E0C2E302378DC082C083E99061C6023708
:103718008DF0EBA3F0ECA3F0ED22C082C083E9604A
:103728001714601C14601E14602314602514602A8A
:1037380014603314603C80419061E9E054FC8038A7
:103748009061E9801C9061E9E0C2E0802B9061E91A
:10375800801B9061E9E0C2E1801E9061E9E0C2E16E
:10376800F0E0D2E080129061E9E0C2E0F0E0D2E15E
:1037780080069061E9E04403F0800B75E182020164
:1037880032F0A3F0A3F0D083D082020132E08A8223
:103798008B832274F5120AB7890A790075080175B6
:1037A8000900E97808120A4C906022E05508605236
:1037B800E975F006A4FCADF074242CFC74603DFDA2
:1037C800750800850882AE82EC2EF582ED1236AFC0
:1037D800F8EA2EF582EB1236AF6870090508E5089D
:1037E800C3940640DE740665087017906023E0F500
:1037F80008750900E97808120A2DE5085401650AD8
:10380800600909E9C39408409379FF7F03020B8993
:10381800C082C0839061907404F0A37448F0A3E45C
:10382800F09061807440F09061BC7407F0906187FB
:103838007469F09061B67416F079001202FB79028F
:10384800120301901400E493F46006E493F9120261
:10385800D7790512049F023A56C082C083E9540FF3
:10386800F9906185E0696012E5C654804449F5C65F
:10387800E59E547F644970F8E9F053C680E59E548C
:103888007F70FA023A5674F7120AB7E5A8FE53A8F1
:103898007E1202E3C2BA539AFEC289759B00C2C265
:1038A8001202E975A91175B9051202EFD2BA439A45
:1038B8000174805E42A87F01020B89C082C0839098
:1038C8006181E4F0A3023A5375E90075910075BF70
:1038D80000020132C082C083906181E4F0A374C009
:1038E800F0A3E4023A55C082C08374F8120A5F90CC
:1038F80002C4123DABE84970030239BA9002C4E031
:10390800544060237908851982851A83AA82AB837B
:10391800120331851982851A83AA82AB8312027732
:103928009002C4E054BFF0E0A2E0500F7900120208
:10393800FB12027D9002C4E054FEF0E05402600FD6
:1039480079011202FB12027D9002C4E054FDF0E0FE
:103958005404600F79001203011202839002C4E03C
:1039680054FBF0E05408600F79011203011202833E
:103978009002C4E054F7F0E05410600F790212038B
:10398800011202839002C4E054EFF0E05420600F6B
:1039980079031203011202839002C4E054DFF0A3FA
:1039A800E05401600D12030D1202899002C5E05423
:1039B800FEF07408120A75023A56C082C083E960A4
:1039C8000514602A804F90619A7433F0A37455F0FF
:1039D8009061A0743AF09002F3E064017009C2911A
:1039E8009002C67467802D9002C67461802690612B
:1039F8009A743FF0A3745AF09061A0747FF090021B
:103A0800F3E064017009D2919002C6747180059048
:103A180002C6746AF08037C082C083E9600B146004
:103A28000D14601714600C802090140480159014F5
:103A38000580109002F3E06401700590140680037D
:103A4800901407E493906186F08003F0A3F0D0838C
:103A5800D08202013274EE120AB774F4120A5F853A
:103A68001982851A83AC82AD8375838E75829374AF
:103A7800041209B390140493F46003023B8790780E
:103A880008E0C394025003023B677404120AABAC0B
:103A980082AD8375838E75826674081209B3FC7EC5
:103AA800FF7FFF8E0C7D008C8285820E800F74084C
:103AB8006D606D74096D6068740A6D60638D08755A
:103AC800090074027808120A4C123B91120970A975
:103AD80009E50AC9F88810741878081208C4E510AE
:103AE8004508FAE9FBE50EC333F8E433F974041228
:103AF8000AABE58228F582E58339123DA9C3E89A25
:103B0800E99B4008E8C39AF8E99B8006EAC398F85D
:103B1800EB99F9C3E89EE99F5006E8FEE9FF8D0C92
:103B28000DEDC39413408774FF6E700374FF6F60CC
:103B380024850C0874027808120A4C123B91120969
:103B480070851982851A83E582250EF582E5831230
:103B58003DB5E508F00CECC394045003023AA77590
:103B680008017509007808120CCA7402120AABAC75
:103B780082AD837A017B0512060D7402120A7574F0
:103B88000C120A757F0A020B8974482508F582749D
:103B9800783509F583780822C082C083906186E071
:103BA800F8901407E493687009901406E493906100
:103BB80086F09061AE7468F0A3746AF09062457400
:103BC800FBF0A304F053F4FD43FE029002F37401EA
:103BD800F09061A0E0643A700479008002790112E3
:103BE80002FB023A56123DC1940622E0C433335414
:103BF800C022C082C0839002EE7425F09002EC745B
:103C080001F0A3E4F07A01FB120433123C462416B7
:103C1800F582E8123DB5741FF0A37403F09002EB2F
:103C2800E0640170169002EAE07010790112047BDA
:103C38001204511204757900120487023A56900250
:103C4800DAE0F8A3E0C82274F6120AB774FA120A86
:103C58005F9002E3E0640170081203139002E3E44A
:103C6800F075E1F1123C462415F582E8123DB57471
:103C780001F09002E5E064017053908E75C0828572
:103C88001982851A83AC82AD8375838ED0827406BF
:103C98001209B375D90D9002DC123BF34403F5D930
:103CA8007800880874DD123DFF7402123BED40F283
:103CB80078008808851982851A83E582123DFFE518
:103CC80083123BED40EC75E1957901800279001291
:103CD80004399004AD123D4E7449F0A37403F0A367
:103CE800123D4E123D4E123D57744FF0A37403120D
:103CF8003D6C9002DCE0F97ADD7B0212041B900235
:103D0800EEE0F912137E790112043F908E971209A2
:103D18008E12044B908E8B12098E12042179001298
:103D280004939002DA123D43123DB57416F09002E6
:103D3800C27405F004120A75023DCDE0F8A3E0C88C
:103D48002414F582E8227443F0A37403F0A322122A
:103D58003D5B22743DF0A37403F0A3743DF0A3749B
:103D680003F0A322123D7022F09004BB123D7CA305
:103D7800123D7C22123D5B743DF0A37403F022C017
:103D880082C0839002DA123D9FF0A3F09002EEE029
:103D9800F912137E023A56123C492406123DB9E440
:103DA80022F583123DAF22E0F8A3E0F922123DBCD0
:103DB80022F582E83400F583223400F583E0F5D952
:103DC80008E8C322F07F02020B89123DD622340094
:103DD800F583E4F02274F6120AB77800880874CAEA
:103DE800123DFF7402123DD208E8C3940840ED90DA
:103DF80002CA7401023DCC2508F5822274F4120A25
:103E0800B774FC120A5F7E00900405E4F090040287
:103E1800F07F7D7508047509007808120CCA7402D1
:103E2800120AABAC82AD837A007B00EFF912060769
:103E38007402120A75908ED3780812097085198257
:103E4800851A8378081207817019900402E0600FC0
:103E5800F9120721EFF9120721900402E48001EF1B
:103E6800F0801E851982851A837808120970E50882
:103E78004509450A450B7004EFFE8005EFF9120766
:103E8800210FEFC3947F408B900402E07026EE7000
:103E980018797D1207159004037404F0A3E4F090D8
:103EA8000405E0601979008017F0120727EEF9126F
:103EB8000733800AEE6004F912071B1207277901FD
:103EC800023F5E74F7120AB774FC120A5FE9FE85B6
:103ED8001982851A83E4F0A3F0A37410F0A3E41206
:103EE8003F0212073F900405E07005EE900402F0CF
:103EF8007404120A757F01020B891240BBFAFB2277
:103F080074F4120AB774FF120A5F8908900405E076
:103F180070331206137E007F00750A01750B007856
:103F28000A120CCA7402120AABAC82AD83EEFAEF25
:103F3800FBA9081206077402120A75851982851AE8
:103F480083E0F460089004057401F08005123FB224
:103F580040C7740180027404120A757F04020B8939
:103F680074F4120AB774FF120A5F89087E007F0092
:103F7800750A01750B00780A120CCA7402120AAB92
:103F8800AC82AD83EEFAEFFBA908120607740212A1
:103F98000A75851982851A83E0F46007A908120753
:103FA8001B8005123FB240C880A8EE24010EEF34F2
:103FB80000FFC394082274F4120AB774FC120A5F53
:103FC8007EFC7F077508047509007808120CCA740E
:103FD80002120AABAC82AD83EEFAEFFB900402E06A
:103FE800F91206077402120A75908ED7780812091A
:103FF80070851982851A837808120781700AEE2461
:10400800FCFEEF1240B050BCEE2404F8EF3400F987
:10401800900403E8F0A3E9F0023F5E74F4120AB7D3
:1040280074FC120A5F8909EAFEEBFF8C08EE24FC97
:10403800FEEF1240B0406A750A04750B00780A1248
:104048000CCA7402120AABAC82AD83EEFAEFFBA97C
:10405800091206077402120A757402120AABE0F814
:10406800A3E0F9851982851A8385080AE0650A7034
:1040780002A3E0700AEEC398FAEF9400FB8026E9E9
:10408800548070A9E82404FAE93400FBC3EE9AEFDF
:104098009B400EEEC398F8EF99F9E824FCFEE980FE
:1040A800917A007B00023F5E34FFFFC3EE9404EF79
:1040B800940022F0851982851A83AC82AD8322741C
:1040C800EA120AB774F8120A5F8910750DFF747D39
:1040D80065107005750C7E8003750C7D750A047576
:1040E8000B00900403E024FCFEA3E00241D28519F2
:1040F80082851A83A3E0548060030241C185198236
:10410800851A83850D08E065087002A3E070030234
:1041180041C1851982851A83E0F50DFCAA0AAB0B0B
:10412800A90C12072D8B09EA450960030241C174E5
:1041380002120AAB124255F508EF99F5098814895D
:1041480015750E00750F007512047513007812129C
:104158000CCA7406120AABAC82AD83E508250EFAC8
:10416800E509350FFB900402E0F912060774021204
:104178000A757404120AABAC82AD83E50A250EFAFF
:10418800E50B350FFBA90C12073FE50E2404F50ECD
:10419800E50F3400F50FC3E514950EE515950F509E
:1041A800A67402120AABE02404F8A3E03400F9E58F
:1041B8000A28F50AE50B39F50B7402120AAB12420C
:1041C80055F8EF99F9E824FCFEE91240B0405A90FE
:1041D8000405E0706E7508047509007808120CCAA9
:1041E8007402120AABAC82AD83EEFAEFFBA910128F
:1041F80006077402120A75851982851A83E0F4701D
:1042080003A3E0F460030240F67402120AABE0F87C
:10421800A3E0F954806007EE24FCFEEF80AC124363
:1042280069EE98EF99401C8090A90C12071590042C
:1042380005E0700A900403E50AF0A3E50BF0A91065
:1042480012071B7408120A757F0E020B89E0F8A387
:10425800E0F9EEC3982274F0120AB774FC120A5FF0
:10426800890B8A088B09ECFEEDFF7414120AABE087
:10427800F50A8014E5082404F508E5093400F50971
:10428800EE2404FEEF3400FF850A0C74FF250CF5BC
:104298000A046045750E04750F00780E120CCA7476
:1042A80002120AABAC82AD83AA08AB09A90B1206AD
:1042B800077402120A75780E120CCAEEFCEFFD7430
:1042C80002120AABAA82AB831204CF7402120A75D7
:1042D800E970A19004057401F07404120A757F084E
:1042E800020B8974F1120AB7890E8A088B09ECFE51
:1042F800EDFF900405E0704D750A01750B00780A12
:10430800120CCA8A0A8B0B7402780A120A3D890CAD
:10431800F50D7409780C120A4CE50A2400FAE50B2D
:10432800350DFB12060D7402120A75750A01780A1A
:10433800120CCEEEFCEFFDAA08AB09A90E12073944
:104348007401120A757F07020B89C082C0831207A5
:104358000FE97004790180027900D083D0820201CC
:1043680032E82404F8E93400F9C322C082C08390FB
:1043780002A774FFF0A3F0A3F0A3F0A3F0A3749F27
:10438800F0A3E4F0A37420F09002A614F0D083D038
:10439800820201327F02020B897F0A020B8974EEC6
:1043A800120AB78A088B09890B8C0E8D0F90033E71
:1043B800E07009900340E070030244729002A4E0A8
:1043C8006003024472898285820C750D00E9240716
:1043D800FAE43400FB1204E18A108B11AE10AF111D
:1043E800EE4F7003024483741865087004742065E6
:1043F80009600C74176508700474206509701090C2
:104408000340E0600AF50A8E828F837492800C90D4
:10441800033EE0F50A8E828F837491F0A3740E1226
:1044280044A58E828F83A3A3F08E828F831248B611
:10443800EE2405F8EF3400F9E8FAE9FBEE2407F872
:10444800EF12461BF0780C120CCAAC0EAD0F8A8224
:104458008B83E0FAA3E0FB1204C97402120A75EE1A
:10446800FAEFFBA90A1204ED8011780E120CCAACFF
:104478000B790E1202A17402120A750243A174F696
:10448800120AB7E9FE8C088D097808120CCAEEFCEE
:1044980079FF1202A17402120A7502439CF090027D
:1044A800A5E02274F2120AB789098A0A8B0B8C08D4
:1044B80074072508FA74FF65096004780380027898
:1044C80002E82AFA7B001204E18A0C8B0DAE0CAFCD
:1044D8000DEE4F70030245CD8E828F837401F0A3D9
:1044E80074FFF0EE2402FAEF3400FBEE2404F8EF38
:1044F80012460BE509124601E02402F8A3E0340055
:10450800F9890DA90B740E120AAB12487674FF656F
:10451800096032740325088882850D831244A5C07A
:10452800E01245D2D0E01245FAE50A1245FAA3E9AD
:10453800F085080A750B00780A120CCA8A828B83E8
:10454800E024068066740225088882850D83F08C35
:10455800828D83E0C0E01245D2D0E0F08C828D835A
:10456800A3E0C0E01245E6D0E0F08C828D83A3A3DF
:10457800E0C0E01245E6A3D0E01245F52406124556
:10458800EB1245F51248C6E9F085080AE50A24FD4C
:10459800F50AE434FFF50B780A120CCAEC2403FC84
:1045A800ED3400FD8A828B83E02408FAA3E034000E
:1045B800FB1204C97402120A75EEFAEFFB90033C71
:1045C800E0F91204ED7F06020B891245D6228A8291
:1045D8008B83E0F8A3E0F5838882A3A3A322124586
:1045E800D6A322F582E83400F583E50A221246278D
:1045F800C822124634A3A3A32212460522F08A82B7
:104608008B832212461B124627F583888274041274
:104618004634223400F98A828B83E8F0A3E9221217
:10462800462B22F08A828B831248AC2212462BF545
:10463800838882A32274E8120AB789148A118C1617
:104648008D178B0D8B82AE827418120AAB1248AC90
:10465800F97418120AABE8F0A3E9F0741A120AAB5D
:10466800E0F51090033EE070030247477A2F7B0085
:104678001204E18A0A8B0BEA450B700302484312C5
:1046880048857402F0EA2403F50EEB3400F50F8533
:104698000E82F5837401F0EA2406F508EB3400F580
:1046A800091248B1750C00807B850882850983E56D
:1046B80014F0A3E511F07512067513007812120CA8
:1046C800CAAC16AD17E5082402FAE5093400FB1256
:1046D80004C97402120A75850882850983A3A3A3F5
:1046E800A3A3A3A3A3EEF08E127812120CCA741A15
:1046F800120AAB124876E5082409FAE5093400FBEA
:104708001204C97402120A75E5082428F582E5091D
:104718001248CBE510F0050CE5082429F508E50951
:104728003400F509850E82850F83E0F8E50CC398FF
:1047380050030246B1AA0AAB0B90033E02483E90D2
:1047480002AEE0A2E540030248439002A6E0A2E1DF
:104758004003024843740C250DF50C7407250CFA28
:104768007B001204E18A0A8B0BEA450B70030248AE
:1047780043124899F508EB3400F50912487C85087E
:1047880082850983E8F0A3E912484874041248486E
:10479800A3743E124863E50C124863A374021248DE
:1047A800707401124870A3E51412484F1248C124CE
:1047B800061248C8E511F0750E06750F00780E123E
:1047C8000CCAAC16AD17850882850983E02407FA60
:1047D800A3E03400FB1204C97402120A758508822A
:1047E8008509831248C1240D1248C8EEF08E0E7850
:1047F8000E120CCA741A120AAB1248768508828502
:104808000983E0240EFAA3E03400FB1204C9740201
:10481800120A75A80D850882850983E028F8A3E0A7
:104828003400F9E8240EF582E91248CBE510F0AA25
:104838000AAB0B90033CE0F91204ED7F10020B89E0
:1048480012484F12485722F08508828509832212A0
:10485800485B221248ACF5838882221248672212EC
:10486800484F12485BA3A322124867A3A322E0FC87
:10487800A3E0FD22EA2404F8EB3400F9228A828BB3
:1048880083749112488F22F0A3743E124605A3A3A5
:104898002212489D228A828B837401F0A374FFF050
:1048A800EA240222E0F8A3E0228A828B83A3A3A34E
:1048B800A3E508F0A3E509F0221248ACC8222407B2
:1048C800F582E83400F5832274F4120AB79078036D
:1048D800E0644270559002F8E014F0704DC2AF12D7
:1048E80048EA00781FD0E0F618D0E0F6E59F5407B4
:1048F80070057509FF800375097FC4C0E0781EE65E
:10490800F50808E65509F509740B7808120A3DD030
:10491800E02508F8906270E0A2E740F8E8C3339019
:104928006272F0906270E0D2E0F07902120391E9CD
:1049380064017022E5A1A2E5500875A1DF120349C0
:1049480080179002C3E07004790180027900120395
:1049580055124A0BE4F012036D7F04020B8974F4BC
:10496800120AB77902120391E964016003024A004E
:1049780079011203559002EEE064277004742580D3
:1049880002E004F09002DAE02402F8A3E03400F92F
:10499800E8FAE9FB9002E6E0F508A3E0F509E4F59A
:1049A8000AF50B8A828B837808120922124A062498
:1049B80006124A15E4F0A3F09002E8E0F508A3E037
:1049C800F50989838A82780812090F124A06240E8B
:1049D800124A15780812097F124A062414124A1539
:1049E8007416F0124A062416124A15741FF0A3749E
:1049F80003F0124A0B7401F012036D024961124D63
:104A08005AC822124D5AC82415124A1522F582E8AE
:104A18003400F58322C082C08353BFEF79021203AA
:104A280091E96401700C7ADA7B021203859002E442
:104A3800E4F075E1F112036DD083D0820201327483
:104A4800F6120AB774FC120A5FE9FE9061C8E070BA
:104A580003024C277401120AAB8582088583097802
:104A680008120CCA7508FF7509027808120CCA7476
:104A780006120AAB8582088583097808120CCA7564
:104A880008F97509027808120CCA7408120AABAC46
:104A980082AD83740B120AABAA82AB8312035B74D8
:104AA80008120A759002EBE06401702E9002EAE0A9
:104AB800F870137C01851982851A83E0F97AF97BED
:104AC800021204578014740168700F851982851AC0
:104AD80083E0F97AF97B021204697401120AABE0E7
:104AE800F5087808120CCE7508FF750902780812C7
:104AF8000CCA7405120AAB124C31120AABE0FA74F4
:104B080006120AABE0F91202A77403120A7512041E
:104B1800A59061C8E07003024C2774016E6003021F
:104B28004BEA7401120AAB8582088583097808125A
:104B38000CCA7508FF7509027808120CCA740612A7
:104B48000AAB8582088583097808120CCA7508F9AA
:104B58007509027808120CCA7408120AABAC82AD47
:104B680083740B120AABAA82AB8312035B7408121C
:104B78000A757401120AABE0F5087808120CCE75B4
:104B880008FF7509027808120CCA7405120AAB12DC
:104B98004C31120AABE0FA7406120AABE0F91202C1
:104BA800A77403120A759002F0E4F09002EFE00493
:104BB800F0640270259002EC124D5DC313F9E813FE
:104BC800F89002ECF0A3E9F0E84970099002EC745F
:104BD80001F0A3E4F09002EFE4F01203611204A5DF
:104BE800803D75E1819002EFE4F0A3E004F06402F7
:104BF800702A9002EC124D54C333F8E933F990024D
:104C0800ECE8F0A3E9F0C3E89401E99401400890C6
:104C180002ECE4F0A304F09002F0E4F012036174F3
:104C280004120A757F02020B89E0FB7CF97D02748D
:104C3800032274F6120AB774FE120A5FE5D924F942
:104C4800FE740E120AAB124D5DF9EE88828983F06C
:104C5800E5D9FF740F5F601014601414602124FEFE
:104C6800602D24FE6021802F8A828B83E4802E8A27
:104C7800828B837401F088828983E024FA801E8AFB
:104C8800828B83740380168A828B837402800E8AD7
:104C9800828B83740480068A828B8374FFF0EFA270
:104CA800E6E4338C828D83F0740C120AAB124D54F7
:104CB80049700A7806E5D918E8601580F87A00E5A1
:104CC800D9C0E0124D48D0E0F00AEAC3940640EF9C
:104CD8007410120AAB124D54497A007015EAC39E3B
:104CE8005015E5D90A80F6E5D9C0E0124D48D0E064
:104CF800F00AEAC39E40F0E5D9851982851A83F047
:104D0800E5D9C0E07401120AABD0E0F07412120ABF
:104D1800AB124D5DF9851982851A83E064807008AD
:104D280088828983747F80129002C6E0FA8519828E
:104D3800851A83E0C39A88828983F07402024C2919
:104D48008A08E82508F582E9124A1822124D5DF909
:104D5800E8229002DAE0F8A3E02274F6120AB7908B
:104D680002ECE064017002A3E070067A017B008027
:104D78001A12032BE9F879009002ECE0FAA3E0FBA1
:104D88001209D4EA24010AEB3400FB120433024C62
:104D98002C74F7120AB790035AE4F0A3F0A3F0A317
:104DA800F07F01020B8974F0120AB7E9FE8A088BBA
:104DB8000912057D7410120AAB780C120970EA4BBF
:104DC800600E8A828B83A3A3780C12097F024E5946
:104DD8007A0D7B00120547EA4B6072EE8A828B835C
:104DE800A3A3A3A3A3A3A3A3F08A828B83A3A3A3B0
:104DF800A3A3A3E508F0A3E509F08A828B83A3A304
:104E0800780C12097F8A828B83E4F0A3F0F508F509
:104E180009F50AF50B8A828B83A3A3A3A3A3A3A3F3
:104E2800A3A3780812097F12516E9003586017E007
:104E3800FCA3E08003E8FCE9FD8C828D83125171AC
:104E480070F38C828D83EAF0A3EBF080047A007B08
:104E5800007F08020B89C082C08390035880048CAD
:104E6800828D83E0FCA3E0FDEC4D60238C828D8372
:104E7800A3A3A3A3A3A3E06A7003A3E06B70E08CD1
:104E8800828D83A3A3A3A3A3A3A3A3E06970D0ECFB
:104E9800FAEDFB024F71C082C083EA4B600E8A8232
:104EA8008B83A3A3A3A3A3A3E4F0A3F0024F71747D
:104EB800F4120AB7740C120AAB7808120970E5A844
:104EC800FFC2AF7808120CC61205777404120A756F
:104ED8008B09A909EFA2E7A2E792AFEA4960047932
:104EE80000800279087F04020B8974F2120AB7A2C3
:104EF800AFE433FFC2AF740E120AAB780812097020
:104F08007808120CC61205777404120A75EA4B6009
:104F1800128A828B83A3A3A3A3A3A3A3A3A3780822
:104F280012097FEFA2E092AFEA4B60047900800299
:104F380079087F06020B8974F4120AB7A2AFE4332A
:104F4800F509C2AF12057D8A0A8B0BAE0AAF0BEECC
:104F58004F6003120583E509A2E092AFEE4F6004AB
:104F6800790080027906024EEDD083D082020132A8
:104F780074E8120AB774FB120A5F8A088B098C0A54
:104F88008D0B7401120AAB780812097FE5A8F9C2E3
:104F9800AF90035A7808120922E9A2E7A2E792AF74
:104FA80012516E7003025164900358E0FEA3E0FFB3
:104FB800751600751700750800750900A2AFE4336F
:104FC800851982851A83F0C2AFEE2402F514EF34F6
:104FD80000F515EE2402F510EF3400F511740312F4
:104FE8000AAB125171701F7402120AABE070177489
:104FF80001120AABE0F8851082851183E0C398405E
:1050080005E0C398803B851482851583780C1209C6
:10501800707401120AAB780C1207A65017740112AB
:105028000AAB780C120970851482851583780C12E6
:105038000949800E851482851583E4F0A3F0A3F056
:10504800A3F0EE2404F512EF3400F51385108285E1
:105058001183125171705785128285138312517111
:105068007057EE2409F50AEF3400F50B850A82F52E
:1050780083780C120970E50C450D450E450F6053F9
:105088008E828F831251DFEA4B60488E828F83A312
:10509800A3A3A3A3A3A3A3E0F9120511850A8285FC
:1050A8000B8312098E85148285158312099A85103F
:1050B80082851183125171700B85128285138312B8
:1050C8005171600F8E828F83A3A3A3A3A3A3125150
:1050D8007170258E828F83E0F8A3E0F9E5164517F5
:1050E80070059003588006851682851783E8F0A31B
:1050F800E9F08E088F0980048E168F178E828F83B1
:10510800E0FEA3E0FF851982851A83E0A2E092AF52
:10511800E5084509603F850882850983A3A31251E4
:1051280071702B850882850983A3A3A3A3125171EB
:10513800701C8508828509831251DF8508828509DC
:1051480083A3A3A3A3A3A3A3A3E0F9120511AA0809
:10515800AB0912054DEE4F6003024FBE7405120AEB
:10516800757F10020B89900358E0F8A3E0F9E8492D
:105178002274F0120AB712516E604590035812510A
:10518800E575088E7509C2750AF5750B288A828B34
:1051980083A3A3780C1209707808790C120796502B
:1051A8000C850C08850D09850E0A850F0B8A828BE4
:1051B80083E0F8A3E0F9E8FAE9FBEA4B600E80CD5A
:1051C800750800750900750A00750B00AA08AB0977
:1051D800AC0AAD0B024E59A3A3A3A3A3A3E0FAA361
:1051E800E0FB22C082C08390035A12098E024F71DD
:1051F800C082C0837A00790F12069743FE0143FEEE
:105208000243FE1002559D74F5120AB789088A0AEE
:10521800EA602F14602C14600A24FE601B24FC60D2
:1052280021800B7CE87D037B057A0112069D9003A3
:1052380090E0F97F03020B897CE87D037B057A32D5
:1052480080E975090153080F7E937F03801DE06490
:1052580001F0E0FAA9091206A9E5096208E509C3FF
:1052680033F509EE2409FEEF3400FFE50860BF5569
:105278000960EA7408650A8E828F8360D1E50A8026
:10528800D074F2120AB7890A8A0B8B0CECFEEDFF78
:10529800E9700302535AEB700302535AEE4F70033E
:1052A80002535AEBC394644003025356750D0153DD
:1052B8000A0F7508937509038076550D605E850899
:1052C80082850983E0C39402500D900390E0550D48
:1052D800F8900392E048F0850882850983E4F0A3FA
:1052E800A3A3EEF0A3EF125364A3E50C125364E5F5
:1052F8000BF070098508828509837404F01205A7EC
:10530800850882850983A3A3A3A3A312099A850804
:1053180082850983E0D2E1F0E50D620AE50DC33329
:10532800F50DE5082409F8E5093400F98808890924
:10533800E50A70867A207B00900388E0F9120595CB
:105348007A207B00900388E0F912051180097A0120
:1053580080027A001206977F06020B89F085088280
:10536800850983A32274E8120AB774FF120A5F75CD
:10537800140075150075160175170F7E937F03903D
:1053880003B7E0600302553AE51755167003025556
:10539800048E828F83E0A2E140030255001205A724
:1053A8008A0C8B0D8C0E8D0F8E828F83A3A3A3A3E3
:1053B800A378081209707808790C1207965003022E
:1053C80054D68E828F83A38582088583098E828F27
:1053D80083E0A2E05031A3A3E0F87464C398851970
:1053E80082851A83F08E828F83E0C2E0F07A00A96A
:1053F800161206A98E828F83E0A2E2403E850882BB
:10540800850983E0148014850882850983E0700E7D
:105418008E828F83E0A2E240056402F0801D8E82B6
:105428008F83A3A3E0851982851A83F08E828F83E8
:10543800E0D2E0F07A01A9161206A98E828F83E0E5
:10544800A2E15064851982851A83E0F508E4F5091C
:10545800F50AF50B8E828F83A3A3A3E0F510A3E0D2
:10546800F511E4F512F513780879101207D5908E26
:10547800AF7810120970780879101208558508104D
:10548800850911E4F512F513780C79101208FC8ED1
:10549800828F83A3A3A3A3A3E50CF0A3E50DF0A338
:1054A800E50EF0A3E50F8023750800750900900349
:1054B80092E0551660047A0180027A00A916120655
:1054C8009774FF6516F8900392E058F0800DE50890
:1054D800C3950CF508E509950DF509E51445156022
:1054E80011E50845096011C3E5089514E509951506
:1054F8005006850814850915E5166217E516C333A5
:10550800F516EE2409FEEF3400FFE5176003025399
:1055180090E5144515601BE4F516F5177814120C80
:10552800C67A207B00900388E0F91205897404127A
:105538000A757401120A757F10020B89C082C08334
:10554800E9A2E0500B74016A7004D2908002C29004
:10555800E9A2E1500B74016A7004D2918002C291F1
:10556800E9A2E2500B74016A7004D2948002C294DA
:10557800E9A2E3500B74016A7004D2908005C290CE
:10558800EA6007900390E049800974FF69F8900386
:1055980090E05880049003B7E4F0D083D0820201F1
:1055A80032C082C0839003B77401F0E590FBE590A8
:1055B800F8E590F9E590FAE8A2E15004D2F080020B
:1055C800C2F0E9A2E45004D2F18002C2F1EAA2E0FA
:1055D800E433333333FAA2F1E4333333F9A2F0E49A
:1055E8003333F8EBA2E0E43348494A900391F07A68
:1055F80000790F1206A980A2C082C0837A019003A5
:1056080091E0F91206A91206A302559DC082C08333
:105618001203A975A70075A100759C7775C300755D
:10562800A20075A30075A40075A50075A60075C332
:105638001175A20075A30075A40075A50075A600D4
:1056480075C33375A20075A30075A40075A5007510
:10565800A60075C34475A20075A30075A40075A5BE
:105668000075A60075C32275A22075A34E75A40007
:1056780075A50075A6007594081203AF439402023D
:10568800578DA2AFE433F8C2AF5394FEE594A2E27B
:1056980040FAE8A2E00258ACA2AFE433F8C2AF4344
:1056A8009401E594A2E250FA80E8E8A2E7A2E79222
:1056B800AF802175C303851982851A83E0F5A2742A
:1056C8000122E8A2E7A2E792AF851982851A83E052
:1056D800FAA3E0FB740202578AC082C08374FC12EA
:1056E8000A5F1257C312570C120AAB1257BD120A9F
:1056F800ABE0F5A675A1EF43A710E8A2E7A2E792F1
:10570800AF02578875C330851982851A83E0F5A4DE
:10571800740122C082C08374FE120A5F12573E755C
:10572800A1FD1256BB120AABE0F5A3E59C54F04468
:1057380001F59C0256B212574553A7FD22851982DE
:10574800851A83EAF0A3EBF0E5A8F8C2AF22E5A436
:10575800851982851A83F0E5A5C0E07401120AABA9
:10576800D0E0F0E5A6C0E07402120AABD0E0F07415
:1057780003120AAB1258BA851982851A8312098E48
:105788007404120A75D083D082020132C082C083A9
:1057980074FC120A5F1257C375A1EF12570C120A54
:1057A800AB1257BD120AABE0F5A6E59C54F04404D1
:1057B800F59C025702E0F5A5740222125830E5A8BC
:1057C800F8C2AF53A7EF2274F4120AB774FC120A96
:1057D8005F12582CA2AFE433F9C2AF53A7DF75A10B
:1057E800DF908ED77808120970851982851A837818
:1057F800081207817005439C70801A75C3401257C0
:105808000F120AAB1257BD120AABE0F5A6E59C547D
:105818000F4450F59CE9A2E092AF7404120A757F18
:1058280004020B8912583022851982851A83EAF0FE
:10583800A3EBF0A3ECF0A3EDF022C082C08374FECA
:10584800120A5F851982851A83EAF0A3EBF085199D
:1058580082851A83E0F8A3E0F9E8496018E5A8F81A
:10586800C2AF75C3001256BE120AABE0F5A3E8A298
:10587800E7A2E792AF0256DCE5A8C2AF53A7C980FA
:105888001CE5A8C2AF53A7C9759C778010E5A8F896
:10589800C2AFE59C54F04407F59CE8800375A1C9A4
:1058A800A2E7A2E792AF020132A3A3A31258BA0259
:1058B800578DE4F0E8A2E7A2E792AF22C082C08346
:1058C80074FC120A5FE5A8F8C2AF75C300E5A2022E
:1058D8005756C082C08374FE120A5FE5A8F8C2AFAB
:1058E80075C300E5A2851982851A83F0E5A3C0E097
:1058F8007401120AABD0E0F00256CAC082C083E538
:10590800A8F8C2AF75C300E5A28A828B83A3A3A3BC
:10591800A3F0E5958C828D83F0E5A38A828B83A31F
:10592800A3A3A312594BA3A3A3E4F0E5968C828DFD
:1059380083A3F0E5978C828D83A3A3F08C828D835B
:105948000258B1A3F0E5A48A828B83F0E5A5A3F001
:10595800E5A68A828B83A3A3F08A828B8322C082E6
:10596800C08374FE120A5FE5A8F8C2AFE5C3F975F3
:10597800C300E5A2E5A4851982851A83F0E5A5C0D0
:10598800E07401120AABD0E0F089C30256CAC082A3
:10599800C08390038EE4F0A3F012065BD083D0821C
:1059A80002013274EE120AB7EAFEEBFF890E900389
:1059B8008EE0F8A3E0F9E84970187A117B00120527
:1059C8004790038EEAF0A3EBF079017AFE7B8D1203
:1059D800064FEEFAEFFB1204C3EAF508C394114030
:1059E8000375081085088285820C85821075110060
:1059F8007401650E702D7810120CCAEEFCEFFD9044
:105A0800038EE0FAA3E0FB1204C97402120A75902F
:105A1800038EE0250CF8A3E034008882F583E4F0D7
:105A2800025AB190038EE0FAA3E0FB1204C3EAF530
:105A38000F25082402FA7B001205478A088B09EA19
:105A480045096065850F0A750B00780A120CCA9023
:105A5800038EE0FCA3E0FD1204C97402120A75E586
:105A680008250AF582E509125B4A050F850F82852C
:105A7800820A7810120CCAEEFCEFFDE508250AFA36
:105A8800E5093400FB1204C97402120A75E50A25F7
:105A98000CF8E43400F9E50828F582E50939F583BE
:105AA800E4F0AA08AB0912054DEEFAEFFBA90E12B5
:105AB80006857F0A020B89851982851A83AA82AB1B
:105AC8008312064F7419120A757F08020B8974F045
:105AD800120AB774E7120A5FEAFEEBFF8C0C8D0D11
:105AE800890B7429120AABE0F50A1204C3EAF50E11
:105AF800F5087509007808120CCAEEFCEFFD74026F
:105B0800120AABAA82AB831204C97402120A758501
:105B18001982851A83E582250E125B46A3858208C1
:105B28008583097808120CCAA90BAA0CAB0DE4FCF2
